:020000040800F2
:10000000000003206D060008392900083B2900087C
:100010003D2900083F290008412900080000000090
:10002000000000000000000000000000417A00080D
:100030004329000800000000D17A00086573000819
:10004000BD060008BD060008BD060008BD06000884
:10005000BD060008BD060008BD060008BD06000874
:10006000BD060008BD060008BD060008BD06000864
:10007000BD060008BD060008BD060008BD06000854
:10008000BD060008BD060008BD060008BD06000844
:10009000BD060008BD060008BD060008BD06000834
:1000A000BD060008BD060008BD060008BD06000824
:1000B000BD060008BD060008BD060008BD06000814
:1000C000BD060008BD060008BD060008BD06000804
:1000D000BD060008BD060008BD060008BD060008F4
:1000E000BD060008BD060008BD060008BD060008E4
:1000F000BD060008BD060008BD060008BD060008D4
:10010000BD060008BD060008BD060008BD060008C3
:10011000BD060008BD06000845290008BD06000808
:10012000BD060008BD060008BD060008BD060008A3
:10013000BD060008BD060008BD060008BD06000893
:10014000BD060008BD060008BD060008BD06000883
:10015000BD060008BD060008BD060008BD06000873
:10016000BD060008BD060008BD060008BD06000863
:10017000BD06000851290008BD0600080000000067
:10018000BD060008BD060008BD060008BD06000843
:10019000BD060008BD060008BD060008BD06000833
:0C01A0005D290008BD0600086929000860
:1001B00010B5054C237833B9044B13B10448AFF3A1
:1001C00000800123237010BD800400200000000087
:1001D000EC38020808B5034B1BB103490348AFF3E1
:1001E000008008BD0000000084040020EC380208F4
:1001F000034613F8012B002AFBD1181A0138704767
:1002000001F0FF01102A2BDB10F0070F08D010F8C7
:10021000013B013A8B422DD010F0070F42B3F6D1CB
:10022000F0B441EA012141EA014122F007047FF0E4
:1002300000070023F0E80256083C85EA010586EA3B
:10024000010685FA47F5A3FA87F586FA47F6A5FA77
:1002500087F68EB9EED1F0BC01F0FF0102F0070283
:1002600032B110F8013B013A83EA010313B1F8D12E
:100270000020704701387047002D06BF354603380F
:10028000073815F0010F07D1013015F4807F02BF48
:10029000013015F4C03F0130F0BC0138704700BF99
:1002A0007BB972B90029BEBF00204FF0004106E0C3
:1002B00008BF00281CBF6FF000414FF0FF3000F076
:1002C000D3B9ADF1080C6DE904CE002909DB002B90
:1002D0001ADB00F04DF8DDF804E0DDE9022304B09C
:1002E0007047404261EB4101002B1BDB00F040F8FE
:1002F000DDF804E0DDE9022304B0404261EB410196
:10030000524263EB43037047524263EB430300F0F6
:100310002FF8DDF804E0DDE9022304B0404261EB90
:1003200041017047524263EB430300F021F8DDF8CE
:1003300004E0DDE9022304B0524263EB430370475B
:1003400053B94AB9002908BF00281CBF4FF0FF313C
:100350004FF0FF3000F088B9ADF1080C6DE904CE24
:1003600000F006F8DDF804E0DDE9022304B0704790
:100370002DE9F047089D8E4604468846002B4AD159
:100380008A42174662D9B2FA82F64EB1C6F120030C
:1003900001FA06F820FA03F3B74043EA0808B4402C
:1003A0004FEA174E1FFA87FCB8FBFEF1230C0EFB39
:1003B000118843EA084301FB0CF29A4209D9FB1861
:1003C00001F1FF3080F0EA809A4240F2E780023982
:1003D0003B449A1AA3B2B2FBFEF00EFB102243EA92
:1003E000024300FB0CFC9C4509D9FB1800F1FF32CD
:1003F00080F0D6809C4540F2D3803B44023840EAEE
:100400000140A3EB0C0300211DB1F3400022C5E91C
:100410000032BDE8F0878B4205D90DB1C5E9000176
:1004200000210846F5E7B3FA83F1002946D1734568
:1004300002D3824200F20581841A6EEB030201208E
:100440009046002DE5D0C5E90048E2E7002A00F01B
:100450009080B2FA82F6002E40F0A4808A1A030C33
:100460004FEA174E80B2BCB20121B2FBFEFC0EFB7C
:100470001C2243EA024304FB0CF29A4207D9FB1800
:100480000CF1FF3802D29A4200F2E080C4469B1A77
:10049000B3FBFEF20EFB123340EA034302FB04F40B
:1004A0009C4207D9FB1802F1FF3002D29C4200F2B5
:1004B000CA8002461B1B42EA0C40A5E7C1F1200698
:1004C0008B4022FA06F71F430EFA01F420FA06F3D6
:1004D0002EFA06FE4FEA1749234300FA01F81FFAE5
:1004E00087FCBEFBF9F01C0C09FB10EE44EA0E443D
:1004F00000FB0CFEA64502FA01F209D93C1900F1F5
:10050000FF3A80F09C80A64540F2998002383C4436
:10051000A4EB0E041FFA83FEB4FBF9F309FB1344AA
:100520004EEA044403FB0CFCA44508D93C1903F132
:10053000FF3E80F08280A4457FD9023B3C4443EAE1
:100540000040A4EB0C04A0FB02EC64457346E146BA
:1005500062D35FD05DB1B8EB030264EB090404FA27
:1005600006F622FA01F31E43CC40C5E900640021DF
:100570004FE7B1FBF2FC010C41EA0E4180B240EAC8
:1005800001423B4638463C46B846BE462026B1FBB3
:10059000F7F1A2EB080241EA0C4166E7014618E7D1
:1005A00010462CE7C6F120022EFA02F3B740B14004
:1005B00020FA02F24FEA174E0A43B3FBFEF8BCB230
:1005C0000EFB1833110C41EA034108FB04F9B0405B
:1005D00089454FEA104380B23ED9791808F1FF3CB3
:1005E00001D289451FD8A1EB0901B1FBFEF909FB36
:1005F00004F80EFB191192B242EA0142424529D297
:10060000BA1809F1FF31C4D24245C2D2A9F10201A0
:100610003A44BEE7F0459DD2BEEB02036CEB070CFB
:100620000138E14696E7A7EB09094944A8F1020C15
:10063000B1FBFEF909FB04F8DBE773467FE75046A0
:1006400066E70846FDE63B44023A33E7ACF1020CAC
:100650003B441CE749469CE7A1EB0901C446B1FBBA
:10066000FEF909FB04F8C4E7704700BFDFF834D097
:10067000002103E00C4B5B58435004310B480C4BFA
:1006800042189A42F6D30B4A02E0002342F8043B98
:10069000094B9A42F9D303F0D9F922F0B9FB01F0E2
:1006A000D3FA70470000032094570208000000208E
:1006B00074020020800400206C4C0120FEE770478B
:1006C00008B500F0BBFDBDE8084000F03FBD00F0FC
:1006D000B7BD704710B50421044621F0ACF920469F
:1006E00010BD000038B50C4B0C4C18800C4B822010
:1006F00019806368984740F6110398420AD1094D62
:1007000023682C60822098472B688220DB689847FA
:10071000002038BD0120FCE7A60400209C0000203A
:10072000A4040020A80400204FF4A071F020FFF7DB
:10073000D9BF0000F7B5394D2B6804461B698220EC
:100740009847208000284ED02B680DF106025B6987
:1007500001A982209847324B1B78002B4BD0BDF863
:10076000062040F674639A423FD9ADF80630BDF8D2
:1007700006209B1A9BB20A2B42D90B22B3FBF2F341
:10078000284A1288934201D9013A93B2BDF8042055
:10079000254840F6B8318A4234D8C2F571620E322B
:1007A000016892B20F25B2FBF5F2204D2D88AA42C6
:1007B00084BF05F1FF35AAB28A4215468EB22AD906
:1007C000921B91B21A4E3768BB42BAB28CBF9A1ACA
:1007D000D21A92B211440529C4BF05603360036880
:1007E00063803368A38003B0F0BDB32A9CBFB422FA
:1007F000ADF80620BBE7BDF80630A3F5B473B9E742
:100800000023C3E7C2F56D62083292B20E2A016876
:10081000C8D800252A46891A89B2D3E7A80400203F
:10082000D02E0020A4040020A0040020A604002054
:100830009C04002037B568460D461446FFF77AFF42
:10084000BDF8000030B1BDF802302B60BDF80430B7
:100850002360012003B030BD032821D8DFE800F079
:10086000020B12190F4B1A68B2FA82F252090421D4
:100870000D4803F07FBB0B4B5A68B2FA82F2520963
:100880000821F5E7074B9A68B2FA82F25209102163
:10089000EEE7044BDA68B2FA82F252092021E7E768
:1008A000704700BFAC04002000100240032821D88C
:1008B000DFE800F0020B12190F4B1A68003A18BF5C
:1008C000012204210D4803F055BB0B4B5A68003A36
:1008D00018BF01220821F5E7074B9A68003A18BFB4
:1008E00001221021EEE7044BDA68003A18BF01221A
:1008F0002021E7E7704700BFAC0400200010024051
:1009000003280DD8DFE800F00206080A0421054894
:1009100003F035BB0821FAE71021F8E72021F6E7BC
:10092000704700BF0010024008B5032811D8DFE867
:1009300000F0020A0C0E0421074803F015FB431EC9
:100940005842584108BD0821F6E71021F4E720215C
:10095000F2E70020F3E700BF0010024070B5084D39
:1009600000240126E0B2FFF7DFFF18B12B68012B4E
:1009700018BF2E600134052C05F10405F2D170BDBD
:10098000AC040020012380F8781080F8793070479B
:100990007047002070470000034B4164003918BFC6
:1009A00001211970704700BF293F012070470020C6
:1009B0007047836B0BB10846184770474FF6FF70BE
:1009C0007047406803689B691847704770477047D5
:1009D0007047704710B5044600F048FD236803498E
:1009E000D3F890302046BDE810401847000000D0F2
:1009F00008B503680446D3F8843098472368204636
:100A0000DB6F984700F0ECF8236820465B6F98474F
:100A1000292001F0ADFB00F0E3F8236820465B6F6E
:100A20009847F8E710B504460AF050FB23682046C3
:100A3000D3F8BC30BDE81040184700F0FBBC00F014
:100A4000FFBC00F031BD00F0D1BC00F041BD00F0B2
:100A500049BD00F0D5BC09F059BD10B5842104464C
:100A600020F0E9FF204610BD10B590F8341090F842
:100A700078400C4B8C421A7809D03AB90A4A0B4993
:100A80001488088810800C8001221A7010BD002A7A
:100A9000FCD0054A05491488088810800C80002283
:100AA000F3E700BF223F01201E3F0120203F01202D
:100AB00070B50D46194635B9094B0A4A0A4840F245
:100AC000FF2121F0F5FEC0E90F52084B003A18BF94
:100AD00001221A700368BDE87040D3F890301847BF
:100AE0005C39020894390208E2390208283F0120E3
:100AF00008B5094B1B888B4203D8084B1B889342CF
:100B000005D9074B074A0848A32121F0D1FE074B1E
:100B10001980074B1A8008BD1E3F0120203F01208D
:100B2000273A02088A3A0208E2390208243F0120E3
:100B3000263F0120034690F87A0018B158680368F0
:100B40001B68184770470000012108B500220846BD
:100B500006F092FC0A4B186028B90A4B0A4A282171
:100B60000A4821F0A5FE00220421012006F023FD01
:100B7000074B186018B9074B034A2C21F0E708BD52
:100B8000C0040020CD3A0208163B0208453B02088B
:100B9000BC040020B83B0208024B4FF0FF3118683C
:100BA00006F0B4BCC0040020014B186806F0DABCA3
:100BB000C0040020024B0021186806F0A7BC00BF4B
:100BC000C0040020FFF7F0BF034804490068002379
:100BD0001A4606F02BBD00BFBC0400200400002014
:100BE00013B5084C00231A4601A9206806F04FFDF2
:100BF00020684FF0FF33002201A906F048FD02B043
:100C000010BD00BFBC04002003685B6C18470120C6
:100C1000704703689B6A1847FEE740F2EF30704761
:100C2000054B0360054B4FF08062C3F88820BFF38B
:100C30004F8FBFF36F8F70470C45020800E100E053
:100C400010B504464FF45A61FFF7EAFF204620F042
:100C5000F2FE204610BD000082B0002301930E4B2F
:100C60001A6B42F400021A631A6B02F4000201923A
:100C7000019A1A6942F400021A611A6922F4000208
:100C80001A61064B064A1A61064A5A61064B4FF032
:100C900080629A6002B070470038024068300020DD
:100CA000F90E0008190C000800E100E008B50A2858
:100CB00009D8DFE800F006100E0808080810101028
:100CC0001000022008BD054B054A0648902121F07E
:100CD000EFFD0020F6E70120F4E700BFFA3B020831
:100CE000153C0208603C020838B50C46887FFFF7C7
:100CF000DDFFA58AE28A164B2169586342EA054264
:100D00005A64628BD963521B1A642568082D0ED170
:100D10009A611A615862207F0E4A42EA0062DA61E3
:100D2000E2681A620C4A5961D9601A6038BD002223
:100D3000D8611A61E1680A0A480902F4784200F4AD
:100D4000FC600243C1F3C4010A439A63034AECE71F
:100D500000B002400900010001230200012303004A
:100D600008B50B280BD8DFE800F00612100A0A0AB3
:100D70000A0808080808022008BD0520FCE7054B02
:100D8000054A06486F2121F093FD0020F4E7012079
:100D9000F2E700BFFA3B0208D13C0208603C0208BF
:100DA0002DE9F04191F81D800C464046FFF7D8FF31
:100DB000A77F05463846FFF7D3FF06463846FFF7BC
:100DC00075FFA18A628B444B521A1A649A61228B76
:100DD000521A1A61E28A586342EA01425A6421694E
:100DE0006268D963DA602068802828D0227F0FD813
:100DF000202867D0402865D004281AD0364B45EA11
:100E0000026545F40035B845DD6161D0334A44E000
:100E1000B0F5807F04D0B0F5007FEFD1304800E01E
:100E2000304840EA0262DA61E2681A625E62596141
:100E300032E045EA026242F40032DA61F6E7A06885
:100E4000021DDA62227F45EA026545F40035DD6164
:100E50005E625961017841B1012921D0224B234AB8
:100E600023484FF48D7121F023FDDA69418822F483
:100E70007F42013922F0100242EA0122DA610121A7
:100E8000154BDA6942F02002DA61DA699206FCD485
:100E900010229A600029B9D0164A1A60BDE8F08184
:100EA000B2F1FF01DA69408822F47F4200F1FF309D
:100EB00022F0100242EA002242F0100218BF012183
:100EC000DA61DDE745EA0262034B42F40032B4E73F
:100ED00042F20132E1E700BF00B00240012301000D
:100EE000090002000A0002001B3D0208353D02080D
:100EF000603C020801230200024B1B68586803682B
:100F00005B6918472C3F012070B5044625460A4B03
:100F10000C30002660602672667245F8203B602225
:100F200029460AF029FA04F55A63EE6024359D42F9
:100F3000FBD1204670BD00BF0C450208034B1A6868
:100F4000D207FCD423229A60704700BF00B0024051
:100F50007047000030B50F4C2568ED07FCD4232501
:100F60000904A56041F001010225FF2B656361645E
:100F7000E0630AD00849656241EA0363E361074B15
:100F800022626061E060236030BDE561039BA36382
:100F9000034BF8E700B00240090001000100020025
:100FA0000100030030B50E4C2568ED07FCD4232565
:100FB0001204A56042F001020225FF2B6563626402
:100FC000E063E16008D01B0643F00213E361054BC8
:100FD00065626061236030BD034BE3610123F9E783
:100FE00000B0024001000200020002FF30B50B4CCD
:100FF0002568ED07FCD4232512041B06A56043F4E5
:101000000033022542F0010265636264E063E1603F
:10101000E361034B65626061236030BD00B0024054
:1010200001000200012070470C2070470C2303FBD5
:101030000100083070470C2303FB010008307047A3
:101040000120704740F6E860704740F6E86303FB14
:1010500001000830704740F6E86303FB01000830E8
:101060007047012070471020704700EB01100830D6
:10107000704700EB011008307047084601F066BE6B
:1010800010B5034B0360044608F094FF204610BDE2
:10109000C445020810B50446FFF7F2FF20461421AC
:1010A00020F0C9FC204610BD10B5034B0360044678
:1010B00008F080FF204610BD9045020810B5044698
:1010C000FFF7F2FF20464FF46F6120F0B4FC20469A
:1010D00010BD000010B5034B0360044608F06AFF22
:1010E000204610BD5C45020810B50446FFF7F2FF2C
:1010F0002046182120F09FFC204610BD10B5084B5B
:101100000360044600F61C70FFF7BAFF04F12C00E0
:10111000FFF7CAFF04F11400FFF7DCFF204610BD03
:10112000F845020808B50248FFF7E8FF08BD00BF10
:101130009C13002010B50446FFF7E0FF204641F263
:10114000900120F078FC204610BD00002DE9F3410D
:1011500001F07EFC054601F07FFC00240146234699
:1011600028462246009411F0D3FB274B274A1A60E9
:10117000204602F02DF8264D264B274A27489A6034
:1011800011F02EFB2B68BFF35B8FDB0735D42846AD
:1011900020F053FC88B3224C224B236004F63476B3
:1011A00004F1140004F12C0804F61C776060C4F804
:1011B0000880E760266108F0FFFE1B4B6361404634
:1011C00008F0FAFE194BE362384608F0F5FE184BBA
:1011D000C4F81C3F04F5736002F070F8224604F571
:1011E0007361304602F060F8304601F0AFFD1148FF
:1011F00021F07CFB284620F02CFC0F4802B0BDE813
:10120000F041FFF7E7BB00BF903F012048050020F9
:1012100098130020680500204C05002008000020DD
:101220009C130020F84502085C450208904502081E
:10123000C445020825110008C404002070470000BE
:101240000148FFF7D5BB00BFC404002070B5264E8F
:10125000264C274D274B23603046FFF755FE284686
:1012600016F05CFC24480FF0B9FB244B2448DC60EA
:1012700000224FF48071C3E9121222491A86C3E991
:101280001A12214983F85820C3E91E011F49C3F8E7
:1012900080101F491F480B60F021C3E90422C3E9F5
:1012A0000622C3E90822C3E90A22C3E90E22C3E9E0
:1012B0001022C3E91422C3E917225A6683F870206A
:1012C0005A67C3E9016501801348018013484FF450
:1012D000A07101801248018012490A70012283F82E
:1012E0003420114A1A6070BDF405002094130020C8
:1012F000680500204C3902084C050020C404002079
:101300000000010101000001000450001A00140057
:101310002C3F01201E3F0120243F0120203F0120BF
:10132000263F0120223F0120204402080148FFF708
:1013300077BC00BFF4050020002070478180704713
:10134000C180704701817047418170477047704785
:1013500070477047704710B4C4880368121B8488B4
:101360005B6D091B12B25DF8044B09B218474FF6CA
:10137000FF7383814FF0FF3303621368C361106012
:101380007047002070478B8883800120704770472A
:1013900080F82610704790F82600704710B500229C
:1013A000B1F90840B1F90A10028042808480C180FE
:1013B00010BD0022028042808280C2807047017787
:1013C000704780ED080A704780F82410704780F855
:1013D0002510704701207047983070478C30704757
:1013E000843070477047704770470000034B90226D
:1013F00083F85A2383F85823704700BF00E100E0C8
:10140000094A0A49D3680A48C3F30A03013B9BB25D
:101410000B801169C1F30A01013901801364536B18
:1014200043F0010353637047006801402E240020FD
:101430002C240020014BD3F8AC0070470068014019
:10144000024B0122C3F8AC105A6270470068014099
:1014500010B52C21044620F0EEFA204610BD10B540
:10146000BC21044620F0E7FA204610BD70B50446C2
:1014700009F0A1F823689D6E0EF048F80146204659
:10148000A8472368054AD3F88C502046AC46002371
:10149000BDE87040A2F51631604700BF00B004D02F
:1014A00009F070B809F07AB809F036B809F0A5B9B2
:1014B00090F8252012B103685B691847704790F8CF
:1014C00025201AB190F8242002B11860704700005E
:1014D000034B4FF080629A604FF080729A607047C1
:1014E00000E100E0084B4FF08062C3F88820BFF3B2
:1014F0004F8FBFF36F8F4FF08072C3F88820BFF318
:101500004F8FBFF36F8F704700E100E070B500238D
:10151000124E8380124B0360336893F858200546BF
:101520000AB1D86C00B998680368DB6A98473368D9
:10153000B0FA80F4D86C640930B10368DB6A98476C
:10154000002808BF44F001042CB9064B064A07489E
:101550002C2121F0ADF9284670BD00BF2C3F0120A1
:101560000C460208733D0208D13D02080A3E0208FB
:1015700070B5254E3568BFF35B8F15F0010540D17E
:10158000304620F05AFA00283BD0204C204B2561F1
:1015900004F13400C4E90035C4E90255E584A562CC
:1015A000A5850FF000FD04F158000CF06DF8194B03
:1015B000A3652046184B40F8843BFFF7A7FF174B65
:1015C000C4F884302433C4F88C304FF4C803C4E921
:1015D00028350023C4F8AC30C4F8B030C4F8B430B7
:1015E000C4F8B8300E480F4BC4F89050C4F89C5063
:1015F000C4F8A850C4F8983021F078F9304620F0AB
:1016000028FA024870BD00BF302400203424002096
:10161000E84A02082C460208A44602089C4A02082E
:10162000E91300087C4A020838B5184C23685BB3FC
:10163000174B184A1B6C11888B4216D1164B198810
:1016400003F0A0FA236893F86A200025013283F89A
:101650006A2083F87C50FFF7B7FA206809F036FD5E
:101660002846BDE83840FFF7F7B803F08BFA246846
:10167000236820461B6A9847012384F87C300020A9
:10168000BDE83840FFF712B938BD00BF2C3F01203C
:10169000006801402E2400202C24002008B50C49AD
:1016A0000C48012207F024FF08B100F0BBFD0A49F5
:1016B000084807F030FF08B100F0B4FD054807F016
:1016C00043FF18B1BDE8084000F0ACBD08BD00BF45
:1016D00040000020F02400205C010020122301487B
:1016E0000B8070472C000020042301480B807047BA
:1016F00028000020002370B54D1C1E46040FB0F1D9
:10170000204F34BF3034373401F8134005F81360EC
:101710000133DCB2A2424FEA0010EFD870BD0000E6
:101720001A2310B50B800A4BD3F8100AD3F8182AE5
:1017300080180AD0D3F8144A06490822FFF7DAFFC6
:10174000042210312046FFF7D5FF034810BD00BF2B
:101750000070FF1F0E0000200C00002010B5044C8C
:1017600004480A46214608F0B5FA204610BD00BFDD
:10177000CC2700206C3E020810B5044C04480A46F1
:10178000214608F0A7FA204610BD00BFCC27002054
:101790007F3E020810B5044C04480A46214608F072
:1017A00099FA204610BD00BFCC270020953E0208C4
:1017B00010B5044C04480A46214608F08BFA20462E
:1017C00010BD00BFCC270020A03E020830B5044663
:1017D00089B01422002103A821F071FA22681C4B61
:1017E0009A4233D11B4C1C4800250195236B43F0D2
:1017F00002032363236B03F002030193019B03A9FC
:101800004FF40053039302F0CBFA4FF4404202230B
:10181000CDE9032303210C23CDE906130E480595DA
:101820000DEB030102F0BCFA0295236B43F0005369
:101830002363236B03F0005302934D202A460521B6
:10184000029B02F063F94D2002F092F909B030BD1D
:1018500000000440003802400004024000F29C41B5
:10186000D0F8E00407F082BE242303FB0103D0F884
:10187000E004D3F8602207F0A9BE242303FB010390
:10188000D0F8E0041A6A07F0D6BED0F8E00407F0FA
:1018900070BF10B5C179044621B1022901D000F012
:1018A000C1FC0121D4F8E00407F047FFD4F8E004BC
:1018B000BDE8104007F012BF10B50446D0F8E004B0
:1018C00007F03EFF2268D2F8003E43F00103C2F861
:1018D000003EE37A23B1034A136943F00603136120
:1018E00010BD00BF00ED00E0D0F8E00407F036BF07
:1018F000D0F8E00407F05DBFD0F8E00407F046BF81
:10190000D0F8E00407F068BFD0F8E00407F066BF45
:1019100008B50278012A034627D11548C0F8E034FB
:10192000C3F8C802134B0360062303714FF400731E
:10193000C38002234372002343810373C281037473
:1019400003F03EF908B100F06DFC4FF40071084857
:1019500003F05BFE80220021054803F037FE0448B7
:101960004FF4BA72012103F031FE002008BD00BF20
:10197000E02900200000044011F0800FD0F8C832A8
:101980004FF024021BBF01F07F0102FB013302FB79
:101990000133987D08BF93F856027047004870479E
:1019A000CC290020704718B102280CBF0120032069
:1019B000704708B5D0F8C80203F071F9BDE80840D7
:1019C000FFF7F1BF10B51446D0F8C8021A462346F7
:1019D00003F097F9BDE81040FFF7E5BF08B5D0F870
:1019E000C80203F0C7F9BDE80840FFF7DCBF08B53F
:1019F000D0F8C80203F025FABDE80840FFF7D3BFCE
:101A000008B5D0F8C80203F053FABDE80840FFF764
:101A1000CABF08B5D0F8C80203F060F9BDE80840B5
:101A2000FFF7C1BF08B5D0F8C80203F0EFF9BDE871
:101A30000840FFF7B8BF08B5D0F8C80203F0C8F9EE
:101A4000BDE80840FFF7AFBF07B5064BADF806008D
:101A50001B68054801220DF1060104F029FB03B0C3
:101A60005DF804FB5C000020142F002030B52DED44
:101A7000048B87B0FFF712FE4FF4FA709FED288AAF
:101A800005F0EEFC00F040FCC824B0EE489AF0EE01
:101A9000488A03A800F094FC58B9DDED037A39EECA
:101AA000279ADDED047A78EEA78ADDED057A38EE27
:101AB000278A052005F0D4FC013CEAD1DFED197A34
:101AC000194C1A4DC9EE279A88EEA79AC8EE278AB4
:101AD00003A800F075FC0346F0B92068DDED037A39
:101AE00077EEE97ACDED007ADDED047A77EEC97A0A
:101AF000CDED017ADDED057A77EEE87ACDED027A6B
:101B000018B11A46694605F091FD286820B10023F6
:101B10001A46694605F08AFD142005F0A1FCD7E7B6
:101B20000000000000004843CC2E0020C82E0020FA
:101B30001FB51C4CB0EE008A20684FF0FF33002226
:101B400001A905F0A4FD0028F6D1DDED017A009091
:101B5000B0EEE77AB4EEC87AF1EE10FA09DD9FED47
:101B6000127A67EEC77AFDEEE77A17EE903A8DF8B3
:101B70000230DDED027AB0EEE77AB4EEC87AF1EE2B
:101B800010FA09DD9FED087A67EE877AFDEEE77AB5
:101B900017EE903A8DF8013004226946034808F0A8
:101BA0009AF9C9E7C82E00209A99993EF02400209E
:101BB00030B595B0102200210AA821F080F8142237
:101BC000002103A821F07BF800241D4B01941A6C1E
:101BD00042F080521A641B6C03F080530193019B06
:101BE000184B02941A6842F440421A601B6803F4CE
:101BF000404302930122029B4FF48033CDE9082336
:101C000002254FF48003CDE90E530421A823CDE92A
:101C1000101308A807231393129503F0FBFC0F235E
:101C2000CDE903354FF4A0504FF48053CDE90603BE
:101C3000052103A8059403F0C9FE15B030BD00BF0F
:101C4000003802400070004080B59AB001F00CFFEF
:101C5000FFF7AEFF142200210DA821F030F8002478
:101C6000C64B00941A6BC648C64DDFF8548342F049
:101C700010021A631A6B02F010020092009A01948B
:101C80001A6B42F020021A631A6B02F020020192D2
:101C9000019A02941A6B42F080021A631A6B02F0E6
:101CA00080020292029A03941A6B42F004021A63B1
:101CB0001A6B02F004020392039A04941A6B42F026
:101CC00001021A631A6B02F001020492049A05944D
:101CD0001A6B42F002021A631A6B02F002020592BA
:101CE000059A06941A6B42F040021A631A6B02F0CE
:101CF00040020692069A07941A6B42F008021A6391
:101D00001B6B03F00803224607933C21079B02F05C
:101D100031F99D480122022102F02CF922469A480D
:101D2000042102F027F9224698484FF4405102F06E
:101D300021F901263C23CDE90D3691480F94032368
:101D40000DA90227109302F02BF806238E480F945A
:101D50000DA9CDE90D36109702F022F88C480F94AA
:101D60000DA9CDE90D6402F01BF80DA94FF4405305
:101D70008648CDE90D36CDE90F4702F011F88548C8
:101D8000854B036001F002FFDFF838E2834B2C62E1
:101D9000C5E900E328464FF48043C5E90434C5E9AA
:101DA0000244C5E9064402F0F3FA1021284602F085
:101DB00037FD214628467A4D02F051FD4FF48273DB
:101DC000C5E900834FF400791823C5E90693284636
:101DD0000A23C5E90244C5E90444C5E90844AC62E4
:101DE000EB6204F009F98F232246394666488DF8E4
:101DF00024308DF8344002F0BDF832464FF47A7347
:101E000009A9284604F054F94FF47A7332460DA913
:101E1000284604F0F9FA324639465B48614D02F033
:101E2000A9F89DF83430D32B04BF5F4B1E705F4B75
:101E30000126C5E90036102240230024C5E9042309
:101E40004FF4C073C5E906344FF40063C5E90834A4
:101E50004FF4005302274FF00409AB624FF0030A1E
:101E600007230DA92846CDE90D73CDE90F934FF057
:101E70000808C5E90249CDE911A7139703F0A0FFAF
:101E80004FF6FF7209A92846CDE90A8608940996FB
:101E90000C9403F0B5FF304601F012FE4FF6FF72CE
:101EA00009A92846CDE90978CDE90B6403F0A8FF1C
:101EB0004FF6FF7209A92846CDE909A8CDE90B9490
:101EC00003F09EFF4FF40C730893089B0C934FF69E
:101ED000FF7209A92846CDE909980B9603F090FFF7
:101EE00040F26A51284603F0A9FF34220DEB0200AC
:101EF000214620F0E4FE2E4D2E4B2C61C5E9003426
:101F00000923C5E905361D23C5E9073A40F20D113D
:101F100040F24313C5E9091340F2171040F247138A
:101F2000C5E90B032846C5E90244AC8685F836406E
:101F300002F030FDFF214FF4806CF022CDE9121445
:101F40000521CDE914C14FF4A0730DA9CDE90E24EC
:101F5000CDE9164228462246174D1893CDE9103791
:101F60000D94ADF864408DF8664002F0DEFD134B31
:101F70002B601B6898472B6826E000BF00380240A2
:101F8000001002401430002000080240000C024003
:101F900000000240A830002000300240A08601006E
:101FA000142F0020E02E0020D02E0020400100A0A1
:101FB0006C2F002000680140C42E00206400002027
:101FC00000500140005C0040204DDB689847204BEA
:101FD0002846C5E90034C5E90274C5E90A47C5E9E0
:101FE0000C4401F0E3FD3146284601F095FEFEF772
:101FF00067FBFEF764FB05F0C3F922460C210A20BB
:1020000005F0D9FA134B224618600C210A2005F07E
:10201000D2FA114B114A18602146114805F0DCF93B
:10202000104B114A18602146104805F0D5F9104BA5
:10203000104A18602146104805F0CEF90F4B186081
:1020400005F0B0F9642001F03BFDFBE768300020AB
:1020500000B00240CC2E0020C82E002030470208DD
:102060006D1A0008DC2E00200C470208CF0600087D
:10207000D82E0020E8460208311B0008D42E00208C
:10208000704770477FB5094B8DF817201B68029386
:102090000DF117020123009201930A4601460448FC
:1020A00002F01EFA07B05DF804FB00BF60000020DC
:1020B000143000207FB500238DF81730084B1B68C3
:1020C00002930A4601230DF1170100910193014685
:1020D000044802F095FA9DF8170007B05DF804FB7C
:1020E00060000020143000201FB5084C24680092C6
:1020F000CDE901340A4601230146054802F080FA81
:10210000003818BF012004B010BD00BF60000020DF
:102110001430002001F0D4BC10B5064C002220463B
:10212000042101F027FF20460122BDE810400421D0
:1021300001F020BF0008024038B50B4D04460122D3
:102140000A484FF4005101F015FF002204212846EF
:1021500001F010FF2046FFF777FC28460122BDE87A
:102160003840042101F006BF00080240000C024084
:1021700038B50B4D044600220A484FF4005101F0D7
:10218000F9FE00220421284601F0F4FE2046FFF764
:102190005BFC28460122BDE83840042101F0EABE7C
:1021A00000080240000C0240F7B5144E144F0546DB
:1021B0000C4630460022042101F0DCFE00224FF4E0
:1021C0000051384601F0D6FE2846FFF73DFC0D4B86
:1021D0000D481B68224601A904F016F93846012271
:1021E0004FF40051019C01F0C5FE3046012204214C
:1021F00001F0C0FE204603B0F0BD00BF0008024061
:10220000000C02405C000020142F002001F058BC9C
:102210000268034B9A4201D101F040BC704700BFF5
:10222000001000407047000037B5012B94BF41F00B
:10223000800141F0C00116488DF8071015460221B3
:1022400000221C4601F096FE12484FF0FF33012297
:102250000DF1070103F02CFF40B10D4801220221CE
:1022600001F088FE4FF0FF3003B030BD2246094830
:102270004FF0FF33294604F0C7F804460028ECD19C
:1022800003480122022101F075FE2046ECE700BF61
:1022900000080240142F0020B0B51C4608336846E1
:1022A000DB08A0EBC30300AF9D4601F07F018DF872
:1022B00000106D46013A0DEB04018B4217D1104816
:1022C0000022022101F056FE621C92B229460D48FE
:1022D0004FF0FF3303F0ECFE0446012208480221D0
:1022E00054B101F047FE4FF0FF30BD46B0BD12F8CB
:1022F000010F03F8010FE0E701F03CFE2046F4E790
:1023000000080240142F0020F0B5274F3A7889B01A
:102310000023012A8DF804308DF8083041D0234C79
:10232000234A2260234A244862600226234AE2604C
:10233000012503A905930793CDE90365069601F0EE
:102340002FFD1D4831462A4601F014FE0DF10B0108
:10235000204601F0D5F818B14FF0FF3009B0F0BDBC
:102360000F238DF8043001AA2B462021204601F0CE
:1023700090F80028F0D1052001F0A2FB2B4602AA1C
:102380002321204601F078F80028E5D18DF80C00D3
:102390002B4603AA2321204601F07BF80028DBD13D
:1023A0003D700020DAE700BFB0300020B4300020DC
:1023B000992200082922000800080240142F00205A
:1023C00030B52DED028B174B1B7883B0054633B922
:1023D0004FF0FF34204603B0BDEC028B30BD1248F5
:1023E000694601F06FF804460028F1D1BDF90000FC
:1023F0009FED0E8A01F05AF8C0EE087ABDF902008E
:10240000C5ED007A01F052F8C0EE087ABDF904007B
:10241000C5ED017A01F04AF8C0EE087AC5ED027AFE
:10242000D8E700BFB0300020B430002000007A446C
:1024300082B00E4B00220092596C41F480415964E5
:10244000596C01F48041009100990192196C41F09E
:10245000805119641B6C03F080530193019B0F2181
:102460006FF0010002B001F051BB00BF0038024024
:102470000268094B9A4282B00BD100230193074BAB
:102480001A6B42F480521A631B6B03F4805301935E
:10249000019B02B0704700BF00300240003802408C
:1024A00007B50F4B02689A4216D10022A3F5F043FC
:1024B0000192196B41F4000119631B6B03F40003D3
:1024C000019305215A20019B01F020FB5A2003B003
:1024D0005DF804EB01F04CBB03B05DF804FB00BFFA
:1024E00000B002402DE9F043044689B014220021D7
:1024F00003A820F0E4FB2268244B9A4243D1244CE9
:10250000244800250095236B43F004032363236BC9
:1025100003F004030093009B0195236B43F0010338
:102520002363236B03F001030193019B4FF0120916
:102530004FF400734FF001080327042603A9CDE9E7
:102540000339CDE90587079601F02AFC4FF4807323
:102550001148079603A9CDE90339CDE9058701F0B4
:102560001FFC0295236C43F400032364236C03F4E3
:1025700000030293029B236A43F400032362236A4D
:1025800023F40003236209B0BDE8F083005C00403F
:10259000003802400008024000000240F0B599B047
:1025A00004461422002107A820F089FB30220DEBFD
:1025B0000200002120F083FB22685E4B9A4240F02B
:1025C000B78008230C93C0231093042312930CA804
:1025D0004FF44033159303F0C7FA08B1FFF722FE1A
:1025E000554B5648002400945A6C42F080625A645D
:1025F0005A6C02F080620092009A01941A6B42F0C9
:1026000020021A631A6B02F020020192019A0294CE
:102610001A6B42F001021A631A6B02F00102029275
:10262000029A03941A6B42F002021A631A6B02F0C8
:1026300002020392039A04941A6B42F040021A6356
:102640001A6B02F040020492049A05941A6B42F04D
:1026500004021A631A6B02F004020592059A0694AA
:102660001A6B42F008021A631B6B03F0080306930F
:1026700002250E26069B0B964FF4806307A9CDE931
:102680000735CDE9094501F08BFB41F658032C488D
:102690000B9607A9CDE907350927CDE9094501F0D2
:1026A0007FFB032327480B9707A9CDE90735CDE921
:1026B000094501F075FB4FF4706322480B9607A99A
:1026C000CDE90735CDE9094501F06AFB4FF40C630C
:1026D0001D480B9607A9CDE90735CDE9094501F05D
:1026E0005FFBC02319480B9607A9CDE90735CDE953
:1026F000094501F055FB082315480B9607A9CDE9BC
:102700000735CDE9094501F04BFB4FF4A0530E48C6
:102710000B9707A9CDE90735CDE9094501F040FB45
:1027200058202246052101F0F1F9582001F020FA45
:1027300019B0F0BD006801400038024000140240AA
:10274000000002400004024000180240000802405D
:10275000000C024010B5044688B01422002103A8E2
:1027600020F0ADFA2268144B9A4223D103F5684356
:10277000002101915A6C114842F480125A645A6C3B
:1027800002F480120192019A02911A6B42F0200227
:102790001A631B6B03F020030293029B4FF46072D9
:1027A00002230321CDE903230523CDE9061303A961
:1027B00001F0F6FA08B010BD0050014000140240CC
:1027C0002DE9F04186B0002303932B4B1C68002CAD
:1027D0004FD14FF00108C3F80080284B00949A6B4A
:1027E000274842EA08029A639B6B03EA08030093B6
:1027F000022703260C25009B01A94FF63F03CDE9D4
:102800000137CDE9046501F0CBFA1E48059501A911
:10281000CDE90187CDE9034601F0C2FA48F233134E
:102820001948059501A9CDE90137CDE9034601F025
:10283000B7FA4FF683731548059501A9CDE901371D
:10284000CDE9034601F0ACFA4CF20373104805954C
:1028500001A9CDE90137CDE9034601F0A1FA6023D2
:102860000C48059501A9CDE90137CDE9034601F0F2
:1028700097FA06B0BDE8F081C4300020003802406D
:1028800000140240000802400018024000100240FC
:10289000000C02400004024070B588B0002302938F
:1028A000204B1A6C42F010021A641B6C03F01003E8
:1028B0000293054601A903A8029B03F037F9069B82
:1028C0004BBB03F023F9184E184B336040F2E7334B
:1028D000F360174BB0FBF3F3013B7360304600230A
:1028E0003361B360B36103F05FFF044680B93046E3
:1028F00003F030FE044658B9362001F039F90F2DA7
:102900000DD822462946362001F000F9094B1D60FA
:10291000204608B070BD03F0F9F84000D3E7012469
:10292000F6E700BF00380240C83000200010004029
:1029300040420F00CC0000207047FEE7FEE7FEE7B4
:10294000FEE77047014803F043BE00BFC8300020D7
:10295000014802F0F3BA00BFE0290020014802F06C
:1029600087B800BF6C2F0020014801F04BB900BFB1
:10297000683000200120704708B520F043FA162384
:1029800003604FF0FF3008BD08B520F03BFA162376
:102990000360FEE770B50D4614460E46731B9C425D
:1029A00001DC204670BDAFF3008006F8010BF5E7AF
:1029B00070B50D4614460E46731B9C4201DC204642
:1029C00070BD16F8010BAFF30080F5E74FF0FF3054
:1029D00070474FF400534B60002070470120704750
:1029E000002070470A4A116808B5034609B9094929
:1029F00011601068694603448B4206D920F002FA40
:102A00000C2303604FF0FF3008BD1360FCE700BFEC
:102A100010310020704C0120704710B5042104468D
:102A20001FF009F8204610BD012908B506D002297B
:102A300008D059B900F00AFC006808BD00F006FC97
:102A40004068FAE700F002FC8068F6E70020F4E74F
:102A500000487047684702080120704713B50024FA
:102A600051B1036801948DF8034001AA9C680DF1EF
:102A70000303A04702B010BD0846FBE7C0897047BA
:102A8000008A7047C088704780887047807A00F05D
:102A90007F007047807AC0097047002070470000AF
:102AA0009FED010A704700BF0000000070477047AB
:102AB00000F598730868496803C37047704770470A
:102AC0004160704770477047064BC0F84C31002397
:102AD000C0F8503100F5A273C0F84801C0F8403189
:102AE000704700BF892B00080123037270477047AD
:102AF00010B4C26841685410034601EB6200D2076B
:102B000048BF0A599B685DF8044B48BFD358184723
:102B10000346406830B19A681AB9D86800F00100DD
:102B200070470120704710B50C2104461EF083FF4A
:102B3000204610BD10B5102104461EF07CFF204633
:102B400010BD10B54FF4AE7104461EF074FF204660
:102B500010BD10B50CF0DAFC0368BDE81040DB6B6B
:102B6000184710B50446D0F8400158B10368DB6837
:102B7000984738B1D4F8400103689B689847002310
:102B8000C4F8403110BD00002DE9F14FD0E9556A7D
:102B90000746B06803681B6A984740F6E7639842A7
:102BA00005D8444B444AA32144481FF081FE706875
:102BB00003681B6A98470F2803D8414B3E4AA4215B
:102BC000F2E7F06803681B6A98470B2803D83D4B6F
:102BD000394AA521E8E70CF099FCDFF8F0900430C1
:102BE0000CF0B9FCD9F8000010B10368DB68984715
:102BF000D9F8000010B103681B689847DFF8D0804F
:102C0000D8F8000010B103685B699847D7F83C0119
:102C100010B103685B689847D8F8000010B10368EA
:102C20001B689847D7F83C0110B103689B68984728
:102C3000F068036800215B6A98474FF0000B224B55
:102C4000C0F804B0044680F808B00360B0680368B8
:102C500059465B6A9847054600F064FB7068036854
:102C600059465B6A98472946064600F039FB331DF2
:102C7000C7F83C61C9F80040C8F80050CAF80030F5
:102C80002B68C6F808A02846DB68EE6398473368CF
:102C900030461B689847214628460EF073FE23688D
:102CA00020461B69984723685B69204601B0BDE850
:102CB000F04F1847CC3E02085A3F02082C40020849
:102CC0007340020816410208F0470208743F0120D1
:102CD000703F0120044B1B6893F858200AB1D86C50
:102CE00000B99868704700BF2C3F012070B50446BA
:102CF0000D4616460CF0CCFC104A1460104A2260B7
:102D0000104A0023C4E95123C4E95333C4E94F33C3
:102D10000D4B1868036801219B68C4E95565984705
:102D2000FFF7D8FF16F0A3FDFFF7D4FF16F01AFE49
:102D3000FFF7D0FF16F022FE204670BD803F012035
:102D40009C470208844702082C3F0120064BC0F82C
:102D50004C310023C0F8503100F5A273C0F848018F
:102D6000C0F84031704700BF892B0008406A7047A7
:102D7000806A704770478A880B8810B5D20A4C88E1
:102D8000C1699BB251F8220043EA0443184410BDC4
:102D900010B50446BAB1107B68B1537BD27A1B02DE
:102DA00003F4E0631A43236A03EB82031A888A421E
:102DB00002D193F9020010BD05D8013880B2043366
:102DC0000028F3D1F7E70020F5E710B52C210446E1
:102DD0001EF031FE204610BD30B58BB00446BDF864
:102DE00060500895BDF85C5007959DF850500695C9
:102DF0009DF84C5005959DF8485004959DF8445019
:102E000003959DF8405002959DF83C500195BDF802
:102E1000385000950EF084F9064B2360159BE36152
:102E2000169B2362199B63621A9BA36220460BB018
:102E300030BD00BF144802087047704770477047A4
:102E40007047704770470368DB6A184710B5034B3B
:102E5000036004460BF00AFB204610BD7C480208C4
:102E600010B5064B036004460BF000FB204640F60D
:102E7000D8611EF0E0FD204610BD00BF7C4802086E
:102E80002DE9F0411D460368BDF918701B6B04461F
:102E9000164698472368314620465B6B984723685F
:102EA000294620469B6B9847236839462046DB6BB2
:102EB000BDE8F041184700002DE9F34704460EF045
:102EC000B5FB334B2360334B0025C4E910354FF479
:102ED000807304F16C07A4F86430FF2384F8663033
:102EE00004F1B409C4E91255C4E91455C4E91655EE
:102EF000E5632566A566384609F0B8FE4846FEF744
:102F000005FB254BC4F8B43024334FF4A076C4F845
:102F1000BC3004F1C80004F1400AC4F8C0504FF4BA
:102F200061610BF099FA2A46294650460096F02333
:102F3000FFF7A6FF04F104084FF07F43A366514654
:102F4000404607F04DF814230093962238466E2130
:102F5000FFF796FF4FF43453C4F8A8300F4BC4F872
:102F6000C0304FF478434046C4E92666C4F8A060F8
:102F7000C4F8AC50C4F8A450A4F8C430C4F8949079
:102F8000394607F02DF8204602B0BDE8F08700BFB3
:102F90007C480208DC4C02089C4A02080000FFFF43
:102FA0007047000030B5164D2C6814F001048FB046
:102FB000BFF35B8F20D128461EF03FFDE0B13F23D9
:102FC0000993104B0893104B104911480A940122A1
:102FD000CDE906430423CDE903320A230093CDE96A
:102FE0000B44CDE901440594FFF7F6FE09481FF0B4
:102FF0007DFC28461EF02DFD05480FB030BD00BFFA
:103000001431002048570208545702081857020884
:1030100018310020A12F00087047000030B5164D70
:103020002C6814F001048FB0BFF35B8F20D12846C9
:103030001EF003FDE0B13F230993104B0893104BA2
:10304000104911480A940122CDE906430423CDE931
:10305000033214230093CDE90B44CDE901440594D8
:10306000FFF7BAFE09481FF041FC28461EF0F1FCAC
:1030700005480FB030BD00BF443100204C57020856
:103080005857020828570208483100201930000814
:103090007047000030B5164D2C6814F001048FB055
:1030A000BFF35B8F20D128461EF0C7FCE0B13F2361
:1030B0000993104B0893104B104911480A940122B0
:1030C000CDE906430423CDE9033228230093CDE95B
:1030D0000B44CDE901440594FFF77EFE09481FF03B
:1030E00005FC28461EF0B5FC05480FB030BD00BFFA
:1030F00074310020505702085C5702083857020804
:10310000783100209130000800207047002070477F
:103110000EB403B503AB002153F8042B01930DF05B
:103120007DFA02B05DF804EB03B070470CB407B54C
:1031300004AB53F8042B01930DF070FA03B05DF863
:1031400004EB02B070470000436C10B5044673B343
:10315000038F2BB9184B194AC52119481FF0A8FB3A
:10316000C38E00EB43035B8C0BB30FF0FEF8238F91
:10317000012B03D8134B144ACB21EEE7E28E531CEC
:103180009BB2092B194688BFA3F10A0104EB410148
:1031900040F63F10498C814209D10A2B04EB4202D0
:1031A00028BF002304EB4303508C588451842046ED
:1031B000BDE810400EF0DCBFB9410208C241020870
:1031C0006D420208B7420208C54202080EF097BFDE
:1031D00038B518BB124B13481C681349B4B12268A8
:1031E00022440260626822440A60A26814440F4BC1
:1031F00000221A8000F02AF8054600F025F80C4B52
:103200001C600C4B1D600C4B188007E00B4B0360DF
:103210000B4B0B600B4B1C68002CE8D138BD00BF7A
:10322000B0310020A8310020A4310020AC310020B2
:10323000843F01208C3F0120883F01206457020811
:10324000605702086857020800207047004870471E
:10325000B431002010B5FFF7E1FE044C2060FFF709
:1032600019FF6060FFF79EFEA06010BDB431002022
:1032700010B5002404600C6014601C6010BD704721
:1032800010B54FF4AE7104461EF0D5FB204610BDBC
:1032900010B50446D0F8580100F013F82046BDE8F8
:1032A00010400CF0B5B9000010B50446FFF71EFD44
:1032B000014B2360204610BDB44802080022026082
:1032C00070477047704704387047704710B5102139
:1032D00004461EF0B0FB204610BDA0F10400F5E747
:1032E00000228260024A026018324260C160704768
:1032F000084902087047000010B5034B03600446FC
:10330000FFF7A4FD204610BD3049020810B5044661
:10331000FFF7F2FF204640F6E8611EF08CFB2046E6
:1033200010BD000010B50446FFF7C6FD04F6DC61D1
:10333000064B236000220023C4F8D83E0A6004F53F
:103340006E6120460A60C4F8E43E10BD30490208B0
:1033500010B50446FFF776FD236FC4F8E43E10BDB8
:10336000F0B5414B0446186885B004F6DC6604F5F8
:103370006E6798B300231A4601A904F088F968BB68
:10338000DFED3A6A9DED027AD6ED007A9DED016A95
:10339000E7EE267A97ED007AA6EE267ADFED346A1C
:1033A000F4EEE67AF1EE10FA54DC9FED326AF4EEB8
:1033B000467AF1EE10FA48BFF0EE467AB4EEE67ABD
:1033C000F1EE10FAC6ED007A47DCDFED2A7AB4EEB2
:1033D000E77AF1EE10FA43D487ED007AD7ED007A60
:1033E000B4F87210B4F87000B1EE0C7A67EE877A18
:1033F0006FF06302FDEEE77A04F16C0517EE903A88
:10340000D6ED007A1BB2934267EE877AB8BF1346B7
:10341000B4F8E62EFDEEE77A521A642BD4BFD21828
:10342000643217EE903A6FF0C7011BB28B42B8BFFF
:103430000B46B4F8E41E091AC82BD4BFC918C8310A
:1034400012B209B228460DF095FA28460AF000F9A2
:1034500005B0F0BDF0EE667AB0E79FED057ABBE708
:10346000C7ED007ABAE700BFCC2E00200AD7A33CF4
:1034700000008C4200008CC210B428B14468C068BF
:10348000A4465DF8044B60474FF0FF305DF8044BF5
:10349000704710B428B10468C068A4465DF8044BB6
:1034A00060474FF0FF305DF8044B704707EE900A1D
:1034B0009FED030AF8EEE77A27EE800A704700BF17
:1034C00000000C4113B506230C466A462821FFF77D
:1034D000D3FF9DF801209DF8003003EB02232380E9
:1034E0009DF803209DF8023003EB022363809DF8D2
:1034F00005209DF8043003EB0223A38002B010BD29
:1035000008B50A4601230F21FFF7B6FF08BDF020DA
:1035100070474FF4A07070472920FEF729BE28207D
:10352000FEF726BE08B5FEF7F7FDCA20FEF720FE1F
:10353000C320FEF701FE0820FEF7FEFD5020FEF737
:10354000FBFDCF20FEF714FE0020FEF7F5FDC120A5
:10355000FEF7F2FD3020FEF7EFFDED20FEF708FE4E
:103560006420FEF7E9FD0320FEF7E6FD1220FEF7DA
:10357000E3FD8120FEF7E0FDE820FEF7F9FD852060
:10358000FEF7DAFD0020FEF7D7FD7820FEF7D4FD28
:10359000CB20FEF7EDFD3920FEF7CEFD2C20FEF707
:1035A000CBFD0020FEF7C8FD3420FEF7C5FD02204C
:1035B000FEF7C2FDF720FEF7DBFD2020FEF7BCFD85
:1035C000EA20FEF7D5FD0020FEF7B6FD0020FEF74D
:1035D000B3FDB120FEF7CCFD0020FEF7ADFD1B20B2
:1035E000FEF7AAFDB620FEF7C3FD0A20FEF7A4FDF4
:1035F000A220FEF7A1FDC020FEF7BAFD1020FEF7C5
:103600009BFDC120FEF7B4FD1020FEF795FDC520FF
:10361000FEF7AEFD4520FEF78FFD1520FEF78CFD71
:10362000C720FEF7A5FD9020FEF786FD3620FEF7A9
:103630009FFDC820FEF780FDF220FEF799FD0020D7
:10364000FEF77AFDB020FEF793FDC220FEF774FD71
:10365000B620FEF78DFD0A20FEF76EFDA720FEF7CF
:103660006BFD2720FEF768FD0420FEF765FD2A208C
:10367000FEF77EFD0020FEF75FFD0020FEF75CFDFB
:103680000020FEF759FDEF20FEF756FD2B20FEF738
:103690006FFD0020FEF750FD0020FEF74DFD0120DC
:1036A000FEF74AFD3F20FEF747FDF620FEF760FDDE
:1036B0000120FEF741FD0020FEF73EFD0620FEF74B
:1036C0003BFD2C20FEF754FDC820FEF79FFD262071
:1036D000FEF74EFD0120FEF72FFDE020FEF748FD2E
:1036E0000F20FEF729FD2920FEF726FD2420FEF7F6
:1036F00023FD0C20FEF720FD0E20FEF71DFD092006
:10370000FEF71AFD4E20FEF717FD7820FEF714FD98
:103710003C20FEF711FD0920FEF70EFD1320FEF7F9
:103720000BFD0520FEF708FD1720FEF705FD112013
:10373000FEF702FD0020FEF7FFFCE120FEF718FD7A
:103740000020FEF7F9FC1620FEF7F6FC1B20FEF722
:10375000F3FC0420FEF7F0FC1120FEF7EDFC07203F
:10376000FEF7EAFC3120FEF7E7FC3320FEF7E4FC2D
:103770004220FEF7E1FC0520FEF7DEFC0C20FEF700
:10378000DBFC0A20FEF7D8FC2820FEF7D5FC2F2012
:10379000FEF7D2FC0F20FEF7CFFC1120FEF7E8FC6D
:1037A000C820FEF733FD2920FEF7E2FCBDE8084003
:1037B0002C20FEF7DDBC08B5FEF7AEFC0321D320BC
:1037C000FEF7F2FC80B208BD10B5C4B2022203219C
:1037D0002046FEF757FC0A20FEF79CFC20460022FC
:1037E0000321FEF74FFCBDE810400220FEF792BC1B
:1037F00038B50446E4B2FEF743FC00212046FEF74C
:1038000059FC012105462046FEF754FC40EA0520FC
:1038100080B238BD10B5C4B240212046FEF74AFC44
:10382000030607D54C212046FEF744FC003818BF9C
:10383000012010BD01224B212046FEF723FC20462B
:1038400000224B21FEF71EFC0020F2E773B5042393
:10385000C4B20E461546D7210DEB03022046FEF7F3
:1038600043FC019B1BBA1A0DC3F30B233280204685
:103870002B8001224B21FEF705FC00224B21204624
:10388000FEF700FC02B070BD10B50A4A13789842EA
:1038900004460DD0517888420AD00BB141B90123BA
:1038A000D454FEF7EDFB2046BDE81040FFF78CBF77
:1038B00010BD00BFC031002010B5C4B209212046A0
:1038C000FEF7F8FB40F00102D2B220460921BDE824
:1038D0001040FEF7D7BB10B5C4B209212046FEF751
:1038E000E9FB092100F0FE022046BDE81040FEF78A
:1038F000C9BB38B5C4B20D4620460A21FEF7DAFB33
:1039000040EA0502D2B220460A21BDE83840FEF75F
:10391000B9BB10B50446FEF7B4FB20461F21FFF7E4
:10392000E8FF2046BDE81040FFF7C6BF38B5C4B277
:103930000D4620460A21FEF7BDFB20EA0502D2B261
:1039400020460A21BDE83840FEF79CBB10B504466E
:10395000FFF7C1FF20461F21BDE81040FFF7E6BF7B
:1039600010B5C0B20C460B21FEF7A4FB204010BDE1
:103970001F21FFF7F5BF0A46C0B20B21FEF782BB3D
:103980001F21FFF7F8BF38B5C4B20D4620461721F6
:10399000FEF790FB20EA0502D2B220461721BDE8CF
:1039A0003840FEF76FBB70B5C4B20646042120460E
:1039B000FEF780FB042100F0FB0205462046FEF7DF
:1039C00061FB3046F021FFF7DEFF05F0F8022046EC
:1039D0000421FEF757FB492220212046FEF752FB27
:1039E0000220FEF797FB204601222121FEF74AFB29
:1039F00020469A224121FEF745FB204601224A211A
:103A0000FEF740FB204601224B21FEF73BFB204600
:103A100000224B21FEF736FB204601225621FEF7FD
:103A200031FB204601225821FEF72CFB20460122C3
:103A30004021FEF727FB2046FF220B21FEF722FB49
:103A4000BDE870400220FEF765BB0000054BD3F8CF
:103A5000882042F47002C3F888204FF000629A6018
:103A6000704700BF00ED00E008B50B4B1A6842F448
:103A700000721A601A6842F480621A601A6842F48E
:103A800080721A60032000F02FF80020FEF704FF78
:103A9000FEF7CEFC002008BD003C0240034A044B68
:103AA00011681B780B441360704700BFC4310020BD
:103AB000C8000020014B1868704700BFC4310020C7
:103AC00038B50446FFF7F6FF631C1CBF054B1B7897
:103AD000054618BFE418FFF7EDFF431BA342FAD3D6
:103AE00038BD00BFC80000200749CA6822F4E06260
:103AF0000302120403F4E063120C134343F0BF63A8
:103B000043F40033CB60704700ED00E0164B30B556
:103B1000DC68C4F30224C4F10703251D042B28BF6D
:103B20000423062D4FF0FF358CBF033C002405FA1B
:103B300003F321EA0303A54022EA0502A34000287B
:103B400043EA0203ACBF00F16040084A4FEA0313A6
:103B5000B8BF00F00F00DBB2AABF00F561401354FC
:103B600080F8003330BD00BF00ED00E014ED00E050
:103B7000002807DB044A4109012300F01F008340AD
:103B800042F82130704700BF00E100E010B5044664
:103B900050B1437903F0FF0213B90271FEF768FCDC
:103BA00001236371002010BD0120FCE710B504461D
:103BB00020B390F8393003F0FF021BB980F83820A9
:103BC000FEF76EFC022384F83930236861681A68B6
:103BD00022F440320A431A605A6BA16822F00702AD
:103BE0000A435A631A6CE1686FF30D020A431A64C0
:103BF00000200123E06384F8393010BD0120FCE788
:103C000070477047036870B55E681D68F207044628
:103C100014D5E90512D51A6822F480721A60C26BB5
:103C200042F00102C26301229A60042380F8393015
:103C3000002380F83830436903B19847B20616D59F
:103C4000AB0414D523681A6822F400521A602022AB
:103C50009A60E36B43F00203E363042384F8393092
:103C6000002384F8383063690BB120469847300749
:103C700016D5290514D523681A6822F400621A6043
:103C800008229A60E36B43F00403E363042384F89F
:103C90003930002384F8383063690BB120469847E7
:103CA00072070BD56B0509D523681A6822F4806268
:103CB0001A6004229A602046FFF7A2FFB00714D5CD
:103CC000A90512D523681A6822F400721A6002222C
:103CD0009A60E36BE363012384F83930002384F8AE
:103CE000383023690BB120469847F20613D5EB0410
:103CF00011D523681A6822F480521A6010229A6043
:103D0000E36BE363012384F83930002384F838300F
:103D10002046FFF776FF70BDF0B590F83820012AF5
:103D200003464FF002002BD0012283F8382083F89D
:103D3000390003EB0112D2E90740556A174F44EAF4
:103D40000040093C012C9CBF05F07F4210434FEA24
:103D500001161A6888BF40EA056091B9516A394076
:103D600001435162012C9969916103D8596A21F08C
:103D70007F4191620122002083F8392083F83800C6
:103D8000F0BDD16939400143D1619919012C89698C
:103D900011619CBF25F07F451562EBE7F0FFFC0049
:103DA0002DE9F74FDFF8BC916C4A00230D68012420
:103DB0009C4004EA0506AC4340F0B7804D680327F9
:103DC00005F003044FEA430807FA08FC671E012FB9
:103DD0006FEA0C0C34D8876807EA0C0ECF6807FA34
:103DE00008F747EA0E078760476827EA060EC5F31B
:103DF00000179F4047EA0E074760C76807EA0C0EA6
:103E00008F6807FA08F747EA0E07022CC76019D136
:103E10004FEAD30A00EB8A0A03F0070BDAF82070A6
:103E20004FEA8B0B4FF00F0E0EFA0BFE27EA0E0E29
:103E30000F6907FA0BF747EA0E07CAF8207001E08E
:103E4000032CDAD1076804FA08F407EA0C073C43AC
:103E500015F4403F046068D000240194D9F8444030
:103E600044F48044C9F84440D9F8444023F003079F
:103E700007F1804704F4804407F59C37019403F070
:103E8000030C019CD7F808E04FEA8C0C0F2404FACD
:103E90000CF42EEA040E324CA0424DD004F580649E
:103EA000A0424BD004F58064A04249D004F5806460
:103EB000A04247D004F58064A04245D004F5806458
:103EC000A04243D004F58064A04241D004F5806450
:103ED000A0423FD004F58064A0423DD004F5806448
:103EE000A04214BF0A24092404FA0CF444EA0E0484
:103EF000BC609468F74315F4801F0CBF3C4034430A
:103F00009460D46815F4001F0CBF3C403443D46067
:103F1000546815F4003F0CBF3C40344354601468AF
:103F2000ED0354BF3C40344314600133102B7FF445
:103F30003DAF03B0BDE8F08F0024D5E70124D3E7FF
:103F40000224D1E70324CFE70424CDE70524CBE7FF
:103F50000624C9E70724C7E70824C5E7003C014059
:103F600000000240003802400369194214BF0120DA
:103F7000002070470AB1816170470904FBE743697B
:103F800001EA030221EA030141EA0241816170472B
:103F900001684B6913F480634FF0000210D06FF496
:103FA00080634B612023026380F83D3080F83E201F
:103FB000036C80F83C2043F0040303640120704745
:103FC000184670472DE9F84606460F4691461D46AD
:103FD0004FEA114A3368BAF1010F0CBF5C699C6962
:103FE00027EA0404A4B2B4FA84F46409A14501D018
:103FF000002025E06A1CEED0FFF75CFD089BC01A8C
:10400000A84201D8002DE5D13368BAF1010F0CBFE9
:104010005B699B6927EA03039BB2B3FA83F35B09ED
:104020009945D7D100232022336386F83D2086F8B6
:104030003E30326C86F83C3042F02002326401207F
:10404000BDE8F8862DE9F04104460F46164698462D
:104050002568686927EA000080B2C0B16B695A051B
:1040600017D52B6843F400732B606FF480636B618A
:1040700020220023236384F83D2084F83E30236C03
:1040800043F004032364002384F83C300120BDE89E
:10409000F081731CDDD0FFF70DFDA0EB0800B042EE
:1040A00001D8002ED4D123685A6927EA020292B2BD
:1040B000002ACDD000232022236384F83D2084F8F9
:1040C0003E30236C1343DDE770B504460D461646BB
:1040D00023685B691B0601D500201EE02046FFF720
:1040E00057FFC8B96A1CF3D0FFF7E4FC801BA84255
:1040F00001D8002DECD123685B6913F08003E7D170
:104100002022236384F83D2084F83E30226C84F81A
:104110003C3042F020022264012070BD2DE9F043C2
:104120001546026885B0DDE90C789946136843F4BA
:10413000807313600E463B46CDF8008000224FF09E
:1041400001110446FFF73EFF236838B11B68DB0509
:1041500002D54FF400732364032620E006F0FE0628
:104160001E611A4943463A462046FFF76BFFA8B93D
:10417000236803905A6903929B6903934246394628
:104180002046039BFFF7A0FF064660B1236C042B7B
:1041900001BF2268136843F40073136001263046A0
:1041A00005B0BDE8F083B9F1010F236802D1EDB28B
:1041B0001D61F4E72A0A1A61394642462046FFF794
:1041C00083FF0028E2D12368F1E700BF020001006D
:1041D0002DE9FF479A46036815461A6842F4806243
:1041E0001A601A68DDE90C7842F480721A600E4693
:1041F0003B46CDF8008000224FF001110446FFF746
:10420000E1FE236838B11B68DB0544BF4FF400733F
:104210002364032021E05FFA86F906F0FE061E61A2
:104220002B4943463A462046FFF70CFFA0B92368C6
:1042300003905A6903929B6903934246394620468C
:10424000039BFFF741FF58B1236C042B01BF226889
:10425000136843F400731360012004B0BDE8F087D5
:10426000BAF1010F23681AD1EDB242461D613946F9
:104270002046FFF729FF02460028E5D121680B6898
:1042800043F480730B602046CDF800803B464FF02E
:104290000111FFF797FE226860B11368B4E72A0A9C
:1042A0001A61394642462046FFF70EFF0028CBD15F
:1042B0002368D9E749F001031361054943463A46AB
:1042C0002046FFF7BFFE003818BF0120C5E700BF3A
:1042D0000200010070B504460D46164623685B696E
:1042E0005B0701D500201EE02046FFF751FEC8B94C
:1042F0006A1CF3D0FFF7DEFB801BA84201D8002D1B
:10430000ECD123685B6913F00403E7D12022236317
:1043100084F83D2084F83E30226C84F83C3042F032
:1043200020022264012070BD70B504460D46164679
:1043300021684B6913F0400301D0002011E04A6965
:10434000D2060FD56FF010024A612022236384F851
:104350003D2084F83E30236C2364002384F83C30F5
:10436000012070BDFFF7A6FB801BA84201D8002DDD
:10437000DED123685B6913F04003D9D12022236387
:1043800084F83D2084F83E30236C1343E4E70000BA
:1043900070B5044608B9012070BD90F83D3003F0B7
:1043A000FF021BB980F83C20FEF79CF8242384F818
:1043B0003D3023681A6822F001021A601A6842F43C
:1043C00000421A601A6822F400421A6001F09EFB53
:1043D0003F4B65689D4294BF3E4B3F4B98428CBF1C
:1043E00000230123002BD6D12268394E51683B4B64
:1043F000B0FBF3F321F03F011943B542516088BF90
:104400004FF49676116A88BF734321F03F0184BF51
:104410004FF47A76B3FBF6F301330B431362D169A1
:10442000431E2B4821F44F41854221F0FF0132D831
:104430006D0040F6FC70B3FBF5F30133034242D04C
:10444000C3F30B031943D161D4E907301168034367
:1044500021F0C0010B4313609168D4E9030321F4F8
:104460000341034321F0FF010B439360D4E905307E
:10447000D168034321F0FF010B43D360136843F07D
:104480000103136000202023206484F83D30206362
:1044900084F83E0080E7A06850B905EB4505B3FB02
:1044A000F5F30133C3F30B037BB143F40043C9E7D6
:1044B00019206843B3FBF0F30133C3F30B0323B1BB
:1044C00043F44043BEE70423BCE70123BAE700BF3F
:1044D000A08601007F841E00FF083D0040420F00BF
:1044E0002DE9F743044699460C9E0F469046FFF788
:1044F000E1FA94F83D30202B054603D0022003B0AA
:10450000BDE8F08300903C49192301222046FFF7C3
:1045100059FD0028F2D194F83C30012BEED02068F0
:10452000012384F83C300368D9075EBF036843F079
:1045300001030360036823F400630360212384F80C
:104540003D30402384F83E30002323640A9B63629D
:10455000BDF82C306385638D2385284BE36242468A
:10456000CDE900654B4639462046FFF7D7FD0028C8
:104570002AD00120C3E7FFF7A7FD40B1236C042B2D
:1045800001BF2268136843F400731360F1E7636AA4
:1045900027681A4612F8011B39616262628D218D0B
:1045A000013A92B262857A69481E80B2520720852C
:1045B0000AD548B15A783A6102336362638D013B90
:1045C00002399BB221856385238D2A4631462046D8
:1045D000002BD0D1FFF77EFE0028CFD122681368D0
:1045E00043F400731360202384F83D3084F83C00CA
:1045F00084F83E0083E700BF020010000000FFFFC8
:104600002DE9F043044687B09946109F0D46904629
:10461000FFF750FA94F83D30202B064604D00225CF
:10462000284607B0BDE8F08300907A49192301229B
:104630002046FFF7C7FC0028F1D194F83C30012B4D
:10464000EDD02068012384F83C300368DB075EBFAF
:10465000036843F001030360036823F4006303600D
:10466000222384F83D30402384F83E300023236425
:104670000E9B6362BDF83C306385638D2385664B7A
:10468000E3622946CDE900764B4642462046FFF7D5
:104690009FFD054608B10125C2E7228D2368B2B906
:1046A00002905A6902929A690292029A1A6842F436
:1046B00000721A60DFF86481238D002B2CD1202238
:1046C00084F83D2084F83C3084F83E30A8E7012A85
:1046D0000AD11A6822F480621A6003905A69039220
:1046E0009A690392039AE1E7022A0ED11A6822F42A
:1046F00080621A601A6842F400621A6004905A6973
:1047000004929B690493049BD4E705905A6905922F
:104710009B690593059BCDE7032B56D8012B15D13B
:10472000324639462046FFF7FFFD0028B3D1236803
:104730001A69636A1A70636A01336362238D013BED
:104740002385638D013B9BB26385B5E7022B009601
:104750003B464FF000024146204619D1FFF732FC9C
:10476000002898D123681A6842F400721A601A6906
:10477000636A1A70626A531C6362238D013B23854E
:10478000638D013B9BB2638523681B695370D2E73D
:10479000FFF718FC024600287FF47DAF23681968F4
:1047A00021F4806119601969636A1970636A0133C1
:1047B0006362238D013B2385638D013B9BB263853F
:1047C000414600963B462046C8E7324639462046D9
:1047D000FFF7AAFD00287FF45EAF23681A69636AB9
:1047E0001A70628D616A013A92B24B1C628522682E
:1047F0006362238D5069013B9BB2400723857FF59F
:104800005BAF032B02BF136823F48063136013694B
:104810004B7090E7020010000000FFFF0400010051
:1048200010B590F83D30202BDCB216D1242380F84F
:104830003D3003681A6822F001021A605A6A22F0B9
:1048400010025A625A6A114359621A6842F0010210
:104850001A6080F83D40002010BD0220FCE730B512
:1048600090F83D30202BDCB216D10268242380F86A
:104870003D30136823F001031360556A4FF6F0735F
:104880002B400B439BB25362136843F00103136048
:1048900080F83D40002030BD0220FCE70068D1F8E0
:1048A00000C0D201843283182DE9F043C6685D68E8
:1048B0004C68D1F8189005F470455D60C5680CF13E
:1048C0000107C5F30B45C6F30B4626443D4445EAB4
:1048D00006455D60C668CD68C6F30A062E449D682D
:1048E00005F470459D60C7688D68C7F30A070135F8
:1048F0003D4445EA06459D601D690E6925F00705A2
:104900001D614FF0000E1E6191F832709D6991F8A3
:104910003180C3F818E091F8305045EA096545EA5E
:10492000082545EA07459D615D6925F0FF055D6144
:104930004D695D61DD6925F4E06525F00705DD6100
:10494000D1E907573D43DD619D6A4D6AC3F828E010
:10495000072E9D629CBF0E4DAE5DDD6A05F0E02521
:10496000DD6288BF01268D6AC96AA4EB0C0474431A
:104970007543033444EA0544DC621C6B6FF30A049C
:104980001C631963835843F001038350BDE8F0832F
:104990007849020838B50446002863D090F8A13061
:1049A00003F0FF021BB980F8A020FDF7F7FD0223FA
:1049B00084F8A13023689A6922F070429A61D4E9A0
:1049C00001200243E06899690243206902430A43D7
:1049D0009A619A68244960690A409A609A6842EA32
:1049E0000042A06902439A60DA68E0690A40DA602E
:1049F000DA6842EA0042206A0243DA601A69606AB1
:104A00000A401A611A6942EA0042A06A02431A6126
:104A10005A690A405A615A69E16A42EA0142216BC5
:104A20000A435A61DA6A94F8350094F8361002F0B5
:104A30007F42DA62DD6A94F834202A4342EA002297
:104A400042EA0142DA625A6B42F006025A639A69FC
:104A500042F001029A6100200123C4F8A40084F806
:104A6000A13038BD0120FCE700F800F07047704726
:104A7000036870B59E6B5D6B7207044614D56907B9
:104A800012D55A6B22F004025A630422DA63D0F87A
:104A9000A43043F00103C0F8A430002380F8A12023
:104AA00080F8A030FFF7E2FFB20716D5AB0714D5A8
:104AB00023685A6B22F002025A630222DA63D4F8A6
:104AC000A4301343C4F8A430042384F8A130002395
:104AD00084F8A0302046FFF7C9FFF00710D5E9079A
:104AE0000ED523685A6B22F001025A630122DA6361
:104AF000002384F8A12084F8A0302046FCF794FD20
:104B0000320711D52B070FD523685A6B22F0080204
:104B10005A630822DA63012384F8A130002384F861
:104B2000A0302046FFF7A3FF70BD2DE9F04190F8BB
:104B3000A030012B06460F4694464FF002001FD0CE
:104B40004FF0010886F8A08086F8A10034240D46B5
:104B500004FB02640FCD38340FC40FCD0FC40FCD4A
:104B60000FC42B682360304662463946FFF796FE35
:104B700033680020C3F8248086F8A18086F8A0005E
:104B8000BDE8F08190F8A020012A03464FF0020012
:104B900012D01A6883F8A100506B20F00100506316
:104BA00006480164516B41F001015163002001226C
:104BB00083F8A12083F8A000704700BF006801407F
:104BC000F7B5044610B390F89534056803F0FF027A
:104BD0001BB980F89424FCF7F9FD0323B5F1A04F2D
:104BE00084F8953404BF0023A371206801F080FF8E
:104BF000237C8DF80030251D95E80E00206801F01B
:104C0000BCFE014630B1022384F8953401252846C4
:104C100003B0F0BD206801F071FF0028F3D12679C0
:104C200004F1140301270246C1B28E4203F12403AA
:104C30001BD8002104F515730A46C8B2864203F159
:104C4000240320D8237C8DF8003095E80E002068DE
:104C500001F0D0FF05460028D5D1012360742068FB
:104C600084F8953402F00AFBD1E723F80A0C43E9F3
:104C7000072203F8237C03F8241C03F8202C43F8B4
:104C8000142C0130D0E743E9072203F8232C03F862
:104C9000240C03F8202C43F8142C0131CDE710B577
:104CA0000446006894F89434012B15D0012384F84D
:104CB0009434C3685B0606D5637B012B02BF836B0C
:104CC00043F48033836301F00DFF206802F0C8FADB
:104CD000002084F8940410BD0220FCE710B590F881
:104CE0009424012A04460AD0012280F894244174B5
:104CF000006802F0A5FA002084F8940410BD022098
:104D0000FCE770B501F00F0606EBC60411F0800F4A
:104D100005464FEA84044FF0240020D000FB0650E3
:104D200004F11401012429444475C2F30A028A6083
:104D30004A780E700B7102B14E83022B04BF002320
:104D40004B7195F89434012B12D00123286885F813
:104D5000943402F014F8002085F8940470BD00FB30
:104D6000065004F515710024294480F85542DCE70B
:104D70000220F3E710B5044601F00F0000EBC0037A
:104D800011F0800F4FEA83034FF0240215D002FB8D
:104D9000004203F11401012321445375087094F873
:104DA0009434012B12D00123206884F8943402F04B
:104DB00025F8002084F8940410BD02FB004203F59E
:104DC00015710023214482F85532E7E70220F3E70A
:104DD00070B501F00F05242404FB050104FB050454
:104DE000C4E998230023C4F8683284F8553284F863
:104DF0005452164682790068012A01F5157108BFE0
:104E0000C4F8706202F0A6F8002070BD70B501F021
:104E10000F05242404FB050104FB0504C4E9082351
:104E20000023A36201236375257516468279006805
:104E30009A4201F1140108BF266302F08BF80020AA
:104E400070BD38B5037901F00F05AB4204462BD392
:104E500011F0800F4FF024001DD000FB054100FB36
:104E6000054001231431437501238B700D7094F8B4
:104E700094249A421AD0206884F8943402F08CF971
:104E80002DB9A179206804F29C4202F045FA002075
:104E900084F8940438BD00FB01431A4603F51571EC
:104EA000002382F85532DFE70120F3E70220F1E723
:104EB00038B5037901F00F029342044629D302EB7F
:104EC000C20311F0800F4FEA83034FF0240017D084
:104ED00000FB024003F11401012321444375002526
:104EE0008D700A7094F89434012B14D0012320683B
:104EF00084F8943402F07BF984F89454284638BD41
:104F000000FB024003F515710023214480F855325F
:104F1000E5E70120F3E70220F1E701F00F0303EBDF
:104F2000C3030A064FEA83034CBF03F1140103F5E0
:104F300015710144006801F0B7BF00002DE9F04F82
:104F4000066889B00446304602F0D4F90390002880
:104F500040F05881206802F09FF9002800F052814B
:104F6000D6F808382068C3F30D23C4F8D43402F00F
:104F700093F9870748BF2268206842BF536903F04E
:104F80000203536102F088F9C00606F500652DD5CD
:104F90002268936923F010039361D6F8208008F407
:104FA000F013B3F5802F08F00F0740F02E8147F67D
:104FB000F07318EA030F14D0242303FB0747C8F348
:104FC0000A19D7F860124A46304602F0C5F8D7F8F9
:104FD00060324B44C7F86032D7F868324B44C7F8A8
:104FE00068322268936943F010039361206802F0ED
:104FF00053F9010300F11C81206802F04DF94203CE
:105000000DD5206802F054F92746049006F5106B80
:105010004FF0000A049B2068002B40F0D3812068E9
:1050200002F03AF9002813DA6B6823F001036B6091
:1050300094F8CC34012B40F06B82002184F8CC141E
:10504000204600F0E6FA2268536903F000435361FA
:10505000206802F021F901050AD5AB68DA0702D50C
:105060002046FCF729FC2268536903F4006353616E
:10507000206802F011F9C30433D56B68206823F06F
:1050800001036B60102101F069FD207906F51063C2
:105090004FF67F31039A904200F23E82EB6943F073
:1050A0000113EB61E37B002B00F05282D5F88430D2
:1050B00043F00B03C5F884306B6C43F00B036B6457
:1050C000D6F80038206823F4FE63C6F8003804F2EE
:1050D0009C42A17902F020F92268536903F48053BD
:1050E0005361206802F0D8F8870416D5206802F0D2
:1050F00005F9206801F038FEE071276800F000FD36
:10510000E2790146384601F07DFC2046FCF7C1FB00
:105110002268536903F400535361206802F0BCF81D
:10512000000707D52046FCF7B0FB2268536903F05F
:1051300008035361206802F0AFF8010600F1138202
:10514000206802F0A9F8C2020CD5A04606F5126943
:1051500001272379BB4200F21F822268536903F4BE
:1051600080135361206802F097F883022DD594F8DC
:1051700004E0234606F5326001218E4520D993F8DC
:105180007CC20268BCF1010F40F01C82002A80F250
:105190001982D4F8D47402F4803207F00107BA42BD
:1051A00040F0108283F87BC2B26942F08002B261A3
:1051B0007269170600F106826B6843F400736B6036
:1051C0002268536903F400135361206802F064F805
:1051D000410007D52046FCF793FB2268536903F092
:1051E00080435361206802F057F842070AD52368CC
:1051F0005D686B0702D52046FCF786FB2268536882
:105200002B43536009B0BDE8F08FB3F5402F7FF416
:10521000E8AE082204F29C41304601F09DFF2423B1
:1052200003FB0747C8F30A18D7F868324344D6E6A9
:10523000206802F035F806F530680490A246002791
:10524000049B2068002B3FF4D7AE049BDB0778D586
:105250005FFA87FB594602F033F810F0010F8146E0
:105260001FD020680123C8F8083094F806C0016CEC
:1052700000F5306303EB4713BCF1010F9A6840F06F
:105280008B8012F0080F07D0AF48814209D9120471
:1052900007D54FF4004203E012F0200F5AD020222D
:1052A0009A6019F0080F21D00823C8F80830236845
:1052B000A5491A6C03F5306303EB47138A429868DB
:1052C00004D9010444BF4FF4004098602046059281
:1052D000FCF7C4FA059A9C498A4207D9A1790129A9
:1052E00004D1206804F29C4202F016F819F0100F65
:1052F0001CBF1023C8F8083019F0020F14D07369CE
:105300001A0642BF6B6843F480636B609AF85732A9
:10531000012B06D100238AF8573259462046FCF764
:10532000E7FA0223C8F8083019F0200F1CBF202329
:10533000C8F8083019F4005F1CBF4FF40053C8F8D8
:105340000830049B5B080137049308F120080AF138
:10535000240A75E7DFF8F0C1614501D9120498D439
:105360001A69DAF87432C2F312029B1ACAF8683268
:105370006FB9D4F864222AB904F29C42012101F0E9
:10538000CBFF04E0D4F860221A44C4F860225946E6
:105390002046FCF769FA84E7DFF8B0C1614507D120
:1053A00011043FF576AF9006F1D520229A60EEE722
:1053B000002FECD1D4F86432002BE8D104F29C42E7
:1053C0003946DCE7049BDB0740F199805FFA8AF3FA
:1053D0001946059301F07DFF10F0010F80461FD0A4
:1053E0006B6B01210AF00F0201FA02F223EA0203B9
:1053F0006B63CBF80810A17901290DD1D7E90723F8
:1054000013443B62BAF1000F06D1636A23B92068E6
:1054100004F29C4201F080FF05992046FCF72DFA2A
:1054200018F0080F1CBF0823CBF8083018F0100F35
:105430001CBF1023CBF8083018F0400F1CBF4023CE
:10544000CBF8083018F0020F0FD05146304601F06B
:1054500085FBFB7D012B05D100230599FB752046BB
:10546000FCF74AFA0223CBF808302368069318F0B9
:10547000800F44D0D7E909329A4240D8A3EB020802
:10548000FB69984528BF9846069B03F5106308F111
:10549000030803EB4A134FEA98080793079B99699F
:1054A00089B24145D7E9093227D393420BD8069BED
:1054B0000AF00F00D3F834280121814022EA0102CA
:1054C000C3F834281BE0A3EB0209FB69059A069890
:1054D000994528BF9946A3790093396A1FFA89F341
:1054E00001F024FD3B6A4B443B62BB6A09F10308AF
:1054F0004B444FEA9808BB62D0E79342D7D9049B4C
:105500005B080AF1010A049324370BF1200B81E5B3
:105510002046FCF7E9F996E599601A6822F4001232
:105520001A60C3F80812D3F8002222F40012C3F85C
:105530000022D3F8002242F00062C3F80022039A4E
:10554000013203922033A5E50A30544F0A31544FFB
:105550006B6943F4005343F02B036B612B6943F0F9
:105560000B032B61ACE5B36923F08003B361012722
:1055700004F257284FF024092379BB427FF6E0ADAF
:1055800009FB07F318F80330012B03D1F9B22046C9
:10559000FFF7C3FC0137EFE798F83C30D9F800205B
:1055A000012B09D1002A07DA67F07F0188F83B3028
:1055B000C9B22046FFF7B1FC013708F1240809F110
:1055C0002009C6E5013124332030D6E5006870B5E6
:1055D000436A120419B913438362002070BD846AC0
:1055E0004E1E03EB14430024B44205D33F3100EBBD
:1055F000810013434360F0E704F1400500EB8505AB
:1056000001346D6803EB1543EEE70368002059622F
:10561000704770472DE9F341044640B30368DE0745
:1056200010D423689D075BD42368190700F19D807F
:1056300023685A0700F1BD80A369002B40F0248144
:1056400000202CE08D4B9A6802F00C02042A07D04F
:105650009A6802F00C02082A0BD15B68590208D53F
:10566000864B1B689A03DCD56368002BD9D10120D7
:1056700015E06368814DB3F5803F13D12B6843F487
:1056800080332B60FEF716FA7C4E054633689B0389
:10569000C7D4FEF70FFA401B6428F7D9032002B0E5
:1056A000BDE8F081B3F5A02F04D12B6843F480232B
:1056B0002B60E3E72A6822F480322A602A6822F409
:1056C00080222A60002BDDD1FEF7F4F906462B6814
:1056D0009F03A6D5FEF7EEF9801B6428F7D9DDE716
:1056E000664B9A6812F00C0F07D09A6802F00C0211
:1056F000082A11D15B685D020ED4604A13689907CD
:1057000002D5E368012BB2D11368216923F0F803B5
:1057100043EAC103136087E7E268594BB2B1012243
:105720001A60FEF7C7F9554D06462B689B0707D54B
:105730002B68226923F0F80343EAC2032B6073E766
:10574000FEF7B8F9801B0228EFD9A7E71A60FEF729
:10575000B1F94A4E054633689F077FF565AFFEF7FE
:10576000A9F9401B0228F6D998E76269444B82B137
:105770000122C3F8802EFEF79DF9404E0546736F57
:105780009B073FF555AFFEF795F9401B0228F6D968
:1057900084E7C3F8802EFEF78DF9384E0546736F07
:1057A0009F077FF545AFFEF785F9401B0228F6D924
:1057B00074E7324B1A6C12F0805228D101921A6CA5
:1057C00042F080521A641B6C03F080530193019BDA
:1057D00001272C4D2B68D8051BD5A368274D012B1D
:1057E00027D12B6F43F001032B67FEF763F9234E9C
:1057F000054641F28838336F9A0739D5002F3FF4B8
:105800001BAF1E4A136C23F08053136414E7002768
:10581000DFE72B6843F480732B60FEF74BF90646F5
:105820002B68D905D9D4FEF745F9801B0228F7D992
:1058300034E7052B04D12B6F43F004032B67D0E72B
:105840002A6F22F001022A672A6F22F004022A67D7
:10585000002BCAD1FEF72EF941F2883806462B6F8D
:105860009B07CBD5FEF726F9801B4045F7D915E7F6
:10587000FEF720F9401B4045BDD90FE70038024034
:105880000000474200700040374DAA6802F00C0249
:10589000082A3ED0022B354B4FF000021A662BD15E
:1058A000FEF708F906462B6899011FD4D4E90732A0
:1058B0001343626A43EA8213E26A43EA0263A26A1A
:1058C0005208013A43EA02436B60284B264D0122FD
:1058D0001A66FEF7EFF804462B689A013FF5B0AE62
:1058E000FEF7E8F8001B0228F6D9D7E6FEF7E2F843
:1058F000801B0228D7D9D1E6FEF7DCF804462B68D6
:105900009B017FF59DAEFEF7D5F8001B0228F6D966
:10591000C4E6012B3FF4ABAE6B68E26903F480018F
:1059200091427FF4A4AE216A03F03F028A427FF4E1
:105930009EAE616A47F6C0721A40B2EB811F7FF4D7
:1059400096AEA26A520803F44031013AB1EB024F1D
:105950007FF48DAEE26A03F07063B3EB026F14BFA5
:10596000012000209BE600BF0038024000004742B3
:10597000134908B58B6803F00C03042B1CD0082BCB
:105980001CD14A684B68496813F4800314BF0D4862
:105990000D48C1F3881118BF002302F03F02A1FB9C
:1059A0000001FAF7CDFC064B5B68C3F301430133FA
:1059B0005B00B0FBF3F008BD0248FCE70248FAE7E1
:1059C0000038024000127A000024F4002DE9F04172
:1059D0000D46044610B90120BDE8F081434B1A681A
:1059E00002F00F028A4228D321688F072DD4C807FE
:1059F00040D43E4B1A6802F00F02AA4265D82268D2
:105A000051076BD4130707D5394A2169936823F4EA
:105A1000604343EAC1039360FFF7AAFF344B354A62
:105A20009B68C3F30313D35CD840334B1860334BEC
:105A30001868FCF731FF0020CEE7CAB21A701B6865
:105A400003F00F038B42C6D1CEE7294B11F0040FB0
:105A50001EBF9A6842F4E0529A600E0742BF9A68ED
:105A600042F460429A609A68A06822F0F002024311
:105A70009A60BCE762681E4B012A1CD11B6813F4B4
:105A8000003FA8D01A4EB36823F003031343B3605A
:105A9000FEF710F841F288380746B368626803F0F1
:105AA0000C03B3EB820FA4D0FEF704F8C01B4045F3
:105AB000F3D9032090E7911E01291B6802D813F047
:105AC000007FDEE713F0020FDBE7EAB21A701B6813
:105AD00003F00F03AB427FF47EAF90E70449E06828
