:020000040800F2
:10000000000003205D0600084D2400084F2400086E
:100010005124000853240008552400080000000063
:100020000000000000000000000000003161000836
:100030005724000800000000C1610008515A000860
:10004000AD060008AD060008AD060008AD060008C4
:10005000AD060008AD060008AD060008AD060008B4
:10006000AD060008AD060008AD060008AD060008A4
:10007000AD060008AD060008AD060008AD06000894
:10008000AD060008AD060008AD060008AD06000884
:10009000AD060008AD060008AD060008AD06000874
:1000A000AD060008AD060008AD060008AD06000864
:1000B000AD060008AD060008AD060008AD06000854
:1000C000AD060008AD060008AD060008AD06000844
:1000D000AD060008AD060008AD060008AD06000834
:1000E000AD060008AD060008AD060008AD06000824
:1000F000AD060008AD060008AD060008AD06000814
:10010000AD060008AD060008AD060008AD06000803
:10011000AD060008AD06000859240008AD06000829
:10012000AD060008AD060008AD060008AD060008E3
:10013000AD060008AD060008AD060008AD060008D3
:10014000AD060008AD060008AD060008AD060008C3
:10015000AD060008AD060008AD060008AD060008B3
:10016000AD060008AD060008AD060008AD060008A3
:10017000AD060008AD060008AD060008000000004E
:10018000AD060008AD060008AD060008AD06000883
:10019000AD060008AD060008AD060008AD06000873
:0C01A00065240008AD060008712400086A
:1001B00010B5054C237833B9044B13B10448AFF3A1
:1001C00000800123237010BD800300200000000088
:1001D0001816020808B5034B1BB103490348AFF3D7
:1001E000008008BD000000008403002018160208EB
:1001F00001F0FF01102A2BDB10F0070F08D010F8D8
:10020000013B013A8B422DD010F0070F42B3F6D1DB
:10021000F0B441EA012141EA014122F007047FF0F4
:1002200000070023F0E80256083C85EA010586EA4B
:10023000010685FA47F5A3FA87F586FA47F6A5FA87
:1002400087F68EB9EED1F0BC01F0FF0102F0070293
:1002500032B110F8013B013A83EA010313B1F8D13E
:100260000020704701387047002D06BF354603381F
:10027000073815F0010F07D1013015F4807F02BF58
:10028000013015F4C03F0130F0BC0138704700BFA9
:100290007BB972B90029BEBF00204FF0004106E0D3
:1002A00008BF00281CBF6FF000414FF0FF3000F086
:1002B000D3B9ADF1080C6DE904CE002909DB002BA0
:1002C0001ADB00F04DF8DDF804E0DDE9022304B0AC
:1002D0007047404261EB4101002B1BDB00F040F80E
:1002E000DDF804E0DDE9022304B0404261EB4101A6
:1002F000524263EB43037047524263EB430300F007
:100300002FF8DDF804E0DDE9022304B0404261EBA0
:1003100041017047524263EB430300F021F8DDF8DE
:1003200004E0DDE9022304B0524263EB430370476B
:1003300053B94AB9002908BF00281CBF4FF0FF314C
:100340004FF0FF3000F088B9ADF1080C6DE904CE34
:1003500000F006F8DDF804E0DDE9022304B07047A0
:100360002DE9F047089D8E4604468846002B4AD169
:100370008A42174662D9B2FA82F64EB1C6F120031C
:1003800001FA06F820FA03F3B74043EA0808B4403C
:100390004FEA174E1FFA87FCB8FBFEF1230C0EFB49
:1003A000118843EA084301FB0CF29A4209D9FB1871
:1003B00001F1FF3080F0EA809A4240F2E780023992
:1003C0003B449A1AA3B2B2FBFEF00EFB102243EAA2
:1003D000024300FB0CFC9C4509D9FB1800F1FF32DD
:1003E00080F0D6809C4540F2D3803B44023840EAFE
:1003F0000140A3EB0C0300211DB1F3400022C5E92D
:100400000032BDE8F0878B4205D90DB1C5E9000186
:1004100000210846F5E7B3FA83F1002946D1734578
:1004200002D3824200F20581841A6EEB030201209E
:100430009046002DE5D0C5E90048E2E7002A00F02B
:100440009080B2FA82F6002E40F0A4808A1A030C43
:100450004FEA174E80B2BCB20121B2FBFEFC0EFB8C
:100460001C2243EA024304FB0CF29A4207D9FB1810
:100470000CF1FF3802D29A4200F2E080C4469B1A87
:10048000B3FBFEF20EFB123340EA034302FB04F41B
:100490009C4207D9FB1802F1FF3002D29C4200F2C5
:1004A000CA8002461B1B42EA0C40A5E7C1F12006A8
:1004B0008B4022FA06F71F430EFA01F420FA06F3E6
:1004C0002EFA06FE4FEA1749234300FA01F81FFAF5
:1004D00087FCBEFBF9F01C0C09FB10EE44EA0E444D
:1004E00000FB0CFEA64502FA01F209D93C1900F105
:1004F000FF3A80F09C80A64540F2998002383C4447
:10050000A4EB0E041FFA83FEB4FBF9F309FB1344BA
:100510004EEA044403FB0CFCA44508D93C1903F142
:10052000FF3E80F08280A4457FD9023B3C4443EAF1
:100530000040A4EB0C04A0FB02EC64457346E146CA
:1005400062D35FD05DB1B8EB030264EB090404FA37
:1005500006F622FA01F31E43CC40C5E900640021EF
:100560004FE7B1FBF2FC010C41EA0E4180B240EAD8
:1005700001423B4638463C46B846BE462026B1FBC3
:10058000F7F1A2EB080241EA0C4166E7014618E7E1
:1005900010462CE7C6F120022EFA02F3B740B14014
:1005A00020FA02F24FEA174E0A43B3FBFEF8BCB240
:1005B0000EFB1833110C41EA034108FB04F9B0406B
:1005C00089454FEA104380B23ED9791808F1FF3CC3
:1005D00001D289451FD8A1EB0901B1FBFEF909FB46
:1005E00004F80EFB191192B242EA0142424529D2A7
:1005F000BA1809F1FF31C4D24245C2D2A9F10201B1
:100600003A44BEE7F0459DD2BEEB02036CEB070C0B
:100610000138E14696E7A7EB09094944A8F1020C25
:10062000B1FBFEF909FB04F8DBE773467FE75046B0
:1006300066E70846FDE63B44023A33E7ACF1020CBC
:100640003B441CE749469CE7A1EB0901C446B1FBCA
:10065000FEF909FB04F8C4E7704700BFDFF834D0A7
:10066000002103E00C4B5B58435004310B480C4B0A
:1006700042189A42F6D30B4A02E0002342F8043BA8
:10068000094B9A42F9D302F065FF20F0EBFA01F032
:1006900083F8704700000320303402080000002077
:1006A00064010020800300208C410120FEE7704798
:1006B00008B500F0BBFDBDE8084000F03FBD00F00C
:1006C000B7BD704710B5042104461EF0ECFF20466C
:1006D00010BD000038B50C4B0C4C18800C4B822020
:1006E00019806368984740F6110398420AD1094D72
:1006F00023682C60822098472B688220DB6898470B
:10070000002038BD0120FCE7A60300204C0000209B
:10071000A4030020A80300204FF4A071F020FFF7ED
:10072000D9BF0000F7B5394D2B6804461B698220FC
:100730009847208000284ED02B680DF106025B6997
:1007400001A982209847324B1B78002B4BD0BDF873
:10075000062040F674639A423FD9ADF80630BDF8E2
:1007600006209B1A9BB20A2B42D90B22B3FBF2F351
:10077000284A1288934201D9013A93B2BDF8042065
:10078000254840F6B8318A4234D8C2F571620E323B
:10079000016892B20F25B2FBF5F2204D2D88AA42D6
:1007A00084BF05F1FF35AAB28A4215468EB22AD916
:1007B000921B91B21A4E3768BB42BAB28CBF9A1ADA
:1007C000D21A92B211440529C4BF05603360036890
:1007D00063803368A38003B0F0BDB32A9CBFB4220A
:1007E000ADF80620BBE7BDF80630A3F5B473B9E752
:1007F0000023C3E7C2F56D62083292B20E2A016887
:10080000C8D800252A46891A89B2D3E7A803002050
:10081000F8230020A4030020A0030020A60300204A
:100820009C03002037B568460D461446FFF77AFF53
:10083000BDF8000030B1BDF802302B60BDF80430C7
:100840002360012003B030BD032821D8DFE800F089
:10085000020B12190F4B1A68B2FA82F252090421E4
:100860000D4803F00BB90B4B5A68B2FA82F25209E9
:100870000821F5E7074B9A68B2FA82F25209102173
:10088000EEE7044BDA68B2FA82F252092021E7E778
:10089000704700BFAC03002000100240032821D89D
:1008A000DFE800F0020B12190F4B1A68003A18BF6C
:1008B000012204210D4803F0E1B80B4B5A68003ABD
:1008C00018BF01220821F5E7074B9A68003A18BFC4
:1008D00001221021EEE7044BDA68003A18BF01222A
:1008E0002021E7E7704700BFAC0300200010024062
:1008F00003280DD8DFE800F00206080A04210548A5
:1009000003F0C1B80821FAE71021F8E72021F6E743
:10091000704700BF0010024008B5032811D8DFE877
:1009200000F0020A0C0E0421074803F0A1F8431E50
:100930005842584108BD0821F6E71021F4E720216C
:10094000F2E70020F3E700BF0010024070B5084D49
:1009500000240126E0B2FFF7DFFF18B12B68012B5E
:1009600018BF2E600134052C05F10405F2D170BDCD
:10097000AC030020012380F8781080F879307047AC
:100980007047002070470000034B4164003918BFD6
:1009900001211970704700BF4B34012070470020BF
:1009A0007047836B0BB10846184770474FF6FF70CE
:1009B0007047406803689B691847704770477047E5
:1009C0007047704710B5044600F048FD236803499E
:1009D000D3F890302046BDE810401847000000D002
:1009E00008B503680446D3F8843098472368204646
:1009F000DB6F984700F0ECF8236820465B6F984760
:100A0000292001F03FF900F0E3F8236820465B6FEE
:100A10009847F8E710B5044608F090F92368204697
:100A2000D3F8BC30BDE81040184700F0FBBC00F024
:100A3000FFBC00F031BD00F0D1BC00F041BD00F0C2
:100A400049BD00F0D5BC07F099BB10B58421044620
:100A50001EF029FE204610BD10B590F8341090F815
:100A600078400C4B8C421A7809D03AB90A4A0B49A3
:100A70001488088810800C8001221A7010BD002A8A
:100A8000FCD0054A05491488088810800C80002293
:100A9000F3E700BF443401204034012042340120F8
:100AA00070B50D46194635B9094B0A4A0A4840F255
:100AB000FF211FF035FDC0E90F52084B003A18BF67
:100AC00001221A700368BDE87040D3F890301847CF
:100AD00088160208C01602080E1702084A340120C0
:100AE00008B5094B1B888B4203D8084B1B889342DF
:100AF00005D9074B074A0848A3211FF011FD074BF2
:100B00001980074B1A8008BD40340120423401206F
:100B100053170208B61702080E17020846340120C0
:100B200048340120034690F87A0018B158680368E9
:100B30001B68184770470000012108B500220846CD
:100B400005F010F80A4B186028B90A4B0A4A282108
:100B50000A481FF0E5FC00220421012005F0A1F85D
:100B6000074B186018B9074B034A2C21F0E708BD62
:100B7000C0030020F9170208421802087118020881
:100B8000BC030020BB180208024B4FF0FF3118686D
:100B900005F032B8C0030020014B186805F058B8C2
:100BA000C0030020024B0021186805F025B800BFE3
:100BB000C0030020FFF7F0BF03480449006800238A
:100BC0001A4605F0A9B800BFBC03002004000020AD
:100BD00013B5084C00231A4601A9206805F0CDF88A
:100BE00020684FF0FF33002201A905F0C6F802B0DB
:100BF00010BD00BFBC03002003685B6C18470120D8
:100C0000704703689B6A1847FEE740F2EF30704771
:100C1000054B0360054B4FF08062C3F88820BFF39B
:100C20004F8FBFF36F8F7047CC21020800E100E0C7
:100C300010B504464FF45A61FFF7EAFF20461EF054
:100C400032FD204610BD000082B0002301930E4B00
:100C50001A6B42F400021A631A6B02F4000201924A
:100C6000019A1A6942F400021A611A6922F4000218
:100C70001A61064B064A1A61064A5A61064B4FF042
:100C800080629A6002B07047003802408C250020D4
:100C9000E90E0008090C000800E100E008B50A2888
:100CA00009D8DFE800F006100E0808080810101038
:100CB0001000022008BD054B054A064890211FF090
:100CC0002FFC0020F6E70120F4E700BFFD18020822
:100CD000181902086319020838B50C46887FFFF717
:100CE000DDFFA58AE28A164B2169586342EA054274
:100CF0005A64628BD963521B1A642568082D0ED181
:100D00009A611A615862207F0E4A42EA0062DA61F3
:100D1000E2681A620C4A5961D9601A6038BD002233
:100D2000D8611A61E1680A0A480902F4784200F4BD
:100D3000FC600243C1F3C4010A439A63034AECE72F
:100D400000B002400900010001230200012303005A
:100D500008B50B280BD8DFE800F00612100A0A0AC3
:100D60000A0808080808022008BD0520FCE7054B12
:100D7000054A06486F211FF0D3FB0020F4E701204D
:100D8000F2E700BFFD180208AB1902086319020858
:100D90002DE9F04191F81D800C464046FFF7D8FF41
:100DA000A77F05463846FFF7D3FF06463846FFF7CC
:100DB00075FFA18A628B444B521A1A649A61228B86
:100DC000521A1A61E28A586342EA01425A6421695E
:100DD0006268D963DA602068802828D0227F0FD823
:100DE000202867D0402865D004281AD0364B45EA21
:100DF000026545F40035B845DD6161D0334A44E011
:100E0000B0F5807F04D0B0F5007FEFD1304800E02E
:100E1000304840EA0262DA61E2681A625E62596151
:100E200032E045EA026242F40032DA61F6E7A06895
:100E3000021DDA62227F45EA026545F40035DD6174
:100E40005E625961017841B1012921D0224B234AC8
:100E500023484FF48D711FF063FBDA69418822F457
:100E60007F42013922F0100242EA0122DA610121B7
:100E7000154BDA6942F02002DA61DA699206FCD495
:100E800010229A600029B9D0164A1A60BDE8F08194
:100E9000B2F1FF01DA69408822F47F4200F1FF30AD
:100EA00022F0100242EA002242F0100218BF012193
:100EB000DA61DDE745EA0262034B42F40032B4E74F
:100EC00042F20132E1E700BF00B00240012301001D
:100ED000090002000A000200F51902080F1A0208B0
:100EE0006319020801230200024B1B68586803685B
:100EF0005B6918474C34012070B5044625460A4BFF
:100F00000C30002660602672667245F8203B602235
:100F1000294608F069F804F55A63EE6024359D42CD
:100F2000FBD1204670BD00BFCC210208034B1A68DC
:100F3000D207FCD423229A60704700BF00B0024061
:100F40007047000030B50F4C2568ED07FCD4232511
:100F50000904A56041F001010225FF2B656361646E
:100F6000E0630AD00849656241EA0363E361074B25
:100F700022626061E060236030BDE561039BA36392
:100F8000034BF8E700B00240090001000100020035
:100F90000100030030B50E4C2568ED07FCD4232575
:100FA0001204A56042F001020225FF2B6563626412
:100FB000E063E16008D01B0643F00213E361054BD8
:100FC00065626061236030BD034BE3610123F9E793
:100FD00000B0024001000200020002FF30B50B4CDD
:100FE0002568ED07FCD4232512041B06A56043F4F5
:100FF0000033022542F0010265636264E063E16050
:10100000E361034B65626061236030BD00B0024064
:1010100001000200012070470C2070470C2303FBE5
:101020000100083070470C2303FB010008307047B3
:101030000120704740F6E860704740F6E86303FB24
:1010400001000830704740F6E86303FB01000830F8
:101050007047012070471020704700EB01100830E6
:10106000704700EB011008307047084601F0F2BBF2
:1010700010B5034B0360044606F0D5FD204610BDB5
:101080008422020810B50446FFF7F2FF204614211F
:101090001EF009FB204610BD10B5034B036004464B
:1010A00006F0C1FD204610BD5022020810B50446CE
:1010B000FFF7F2FF20464FF46F611EF0F4FA20466E
:1010C00010BD000010B5034B0360044606F0ABFDF5
:1010D000204610BD1C22020810B50446FFF7F2FF9F
:1010E000204618211EF0DFFA204610BD10B5084B2F
:1010F0000360044600F61C70FFF7BAFF04F12C00F1
:10110000FFF7CAFF04F11400FFF7DCFF204610BD13
:10111000B822020808B50248FFF7E8FF08BD00BF83
:101120009C12002010B50446FFF7E0FF204641F274
:1011300090011EF0B8FA204610BD00002DE9F341E1
:1011400001F00AFA054601F00BFA00240146234695
:101150002846224600940FF013FA274B274A1A60BC
:10116000204601F0B9FD264D264B274A27489A60B4
:101170000FF06EF92B68BFF35B8FDB0735D4284681
:101180001EF093FA88B3224C224B236004F6347687
:1011900004F1140004F12C0804F61C776060C4F814
:1011A0000880E760266106F03FFD1B4B6361404607
:1011B00006F03AFD194BE362384606F035FD184B50
:1011C000C4F81C3F04F5736001F0FCFD224604F5F1
:1011D0007361304601F0ECFD304601F03BFB1148F5
:1011E0001FF0BCF928461EF06CFA0F4802B0BDE8AB
:1011F000F041FFF7E7BB00BFB034012048040020F6
:1012000098120020680400204C04002008000020F0
:101210009C120020B82202081C2202085022020858
:101220008422020815110008C40300207047000042
:101230000148FFF7D5BB00BFC403002070B5264EA0
:10124000264C274D274B23603046FFF755FE284696
:1012500014F09CFA24480DF0F9F9244B2448DC6082
:1012600000224FF48071C3E9121222491A86C3E9A1
:101270001A12214983F85820C3E91E011F49C3F8F7
:1012800080101F491F480B60F021C3E90422C3E905
:101290000622C3E90822C3E90A22C3E90E22C3E9F0
:1012A0001022C3E91422C3E917225A6683F870207A
:1012B0005A67C3E9016501801348018013484FF460
:1012C000A07101801248018012490A70012283F83E
:1012D0003420114A1A6070BDF404002094120020DA
:1012E00068040020781602084C040020C403002083
:1012F0000000010101000001000450001A00140068
:101300004C34012040340120463401204234012075
:101310004834012044340120E02002080148FFF74E
:1013200077BC00BFF4040020002070478180704724
:10133000C180704701817047418170477047704795
:1013400070477047704710B4C4880368121B8488C4
:101350005B6D091B12B25DF8044B09B218474FF6DA
:10136000FF7383814FF0FF3303621368C361106022
:101370007047002070478B8883800120704770473A
:1013800080F82610704790F82600704710B50022AC
:10139000B1F90840B1F90A10028042808480C1800E
:1013A00010BD0022028042808280C2807047017797
:1013B000704780ED080A704780F82410704780F865
:1013C0002510704701207047983070478C30704767
:1013D000843070477047704770470000034B90227D
:1013E00083F85A2383F85823704700BF00E100E0D8
:1013F000094A0A49D3680A48C3F30A03013B9BB26E
:101400000B801169C1F30A01013901801364536B28
:1014100043F0010353637047006801402E2300200E
:101420002C230020014BD3F8AC007047006801402A
:10143000024B0122C3F8AC105A62704700680140A9
:1014400010B52C2104461EF02EF9204610BD10B513
:10145000BC2104461EF027F9204610BD70B5044695
:1014600006F0E1FE23689D6E0BF088FE01462046E3
:10147000A8472368054AD3F88C502046AC46002381
:10148000BDE87040A2F51631604700BF00B004D03F
:1014900006F0B0BE06F0BABE06F076BE06F0E5BFB6
:1014A00090F8252012B103685B691847704790F8DF
:1014B00025201AB190F8242002B11860704700006E
:1014C000034B4FF080629A604FF080729A607047D1
:1014D00000E100E0084B4FF08062C3F88820BFF3C2
:1014E0004F8FBFF36F8F4FF08072C3F88820BFF328
:1014F0004F8FBFF36F8F704700E100E070B500239E
:10150000124E8380124B0360336893F858200546CF
:101510000AB1D86C00B998680368DB6A98473368E9
:10152000B0FA80F4D86C640930B10368DB6A98477C
:10153000002808BF44F001042CB9064B064A0748AE
:101540002C211EF0EDFF284670BD00BF4C34012059
:10155000CC2202084D1A0208AB1A0208E41A02084B
:1015600070B5254E3568BFF35B8F15F0010540D18E
:1015700030461EF09AF800283BD0204C204B2561C5
:1015800004F13400C4E90035C4E90255E584A562DC
:10159000A5850DF040FB04F1580009F0ADFE194B94
:1015A000A3652046184B40F8843BFFF7A7FF174B75
:1015B000C4F884302433C4F88C304FF4C803C4E931
:1015C00028350023C4F8AC30C4F8B030C4F8B430C7
:1015D000C4F8B8300E480F4BC4F89050C4F89C5073
:1015E000C4F8A850C4F898301EF0B8FF30461EF07A
:1015F00068F8024870BD00BF30230020342300206B
:1016000084270208EC220208642302083827020813
:10161000D91300081827020838B5184C23685BB3A3
:10162000174B184A1B6C11888B4216D1164B198820
:1016300003F02CF8236893F86A200025013283F820
:101640006A2083F87C50FFF7B7FA206807F076FB32
:101650002846BDE83840FFF7F7B803F017F82468CC
:10166000236820461B6A9847012384F87C300020B9
:10167000BDE83840FFF712B938BD00BF4C34012037
:10168000006801402E2300202C23002007B5064BC4
:10169000ADF806001B68054801220DF1060103F0B4
:1016A00095FD03B05DF804FB0C00002038240020F9
:1016B0007FB54FF4FA7004F049FA00F0AFFB0D4C1F
:1016C0000D4D03A800F006FC024670B9039B009381
:1016D000049B0193059B029328680A23694604F042
:1016E0001BFB642004F032FAEBE720461FF032F9CE
:1016F000F7E700BF461B0208F423002030B595B081
:10170000102200210AA81FF005FA1422002103A8C4
:101710001FF000FA00241E4B01941A6C42F0805214
:101720001A641B6C03F080530193019B194B0294C4
:101730001A6842F440421A601B6803F44043029363
:101740000122029B4FF48033CDE9082302254FF498
:1017500080030821CDE90E534FF4B473CDE9101383
:1017600008A804231393129502F0E8FF02F0ACFFDF
:101770000F23CDE903354FF4A0504FF48053CDE94A
:101780000603052103A8059403F0B4F915B030BD94
:10179000003802400070004080B59AB001F0E8FEC9
:1017A000FFF7ACFF142200210DA81FF0B3F90024AD
:1017B000C64B00941A6BC648C64DDFF8588342F0FA
:1017C00010021A631A6B02F010020092009A019440
:1017D0001A6B42F020021A631A6B02F02002019287
:1017E000019A02941A6B42F080021A631A6B02F09B
:1017F00080020292029A03941A6B42F004021A6366
:101800001A6B02F004020392039A04941A6B42F0DA
:1018100001021A631A6B02F001020492049A059401
:101820001A6B42F002021A631A6B02F0020205926E
:10183000059A06941A6B42F040021A631A6B02F082
:1018400040020692069A07941A6B42F008021A6345
:101850001B6B03F00803224607933C21079B02F011
:101860000DF99D480122022102F008F922469A480A
:10187000042102F003F9224698484FF4405102F047
:10188000FDF801263C23CDE90D3691480F94032342
:101890000DA90227109302F007F806238E480F9433
:1018A0000DA9CDE90D36109701F0FEFF0DA94FF4FB
:1018B00040538A48CDE90D36CDE90F4701F0F4FFDA
:1018C0008748884B036001F0E5FEDFF84CE2864B69
:1018D0002C62C5E900E328464FF48043C5E904348F
:1018E000C5E90244C5E9064402F0D6FA10212846AB
:1018F00002F01AFD214628467C4D02F034FD4FF4DB
:101900008273C5E900834FF400791823C5E9069373
:1019100028460A23C5E90244C5E90444C5E9084448
:10192000AC62EB6203F0F6FB8F23224639466A482D
:101930008DF824308DF8344002F0A0F832464FF490
:101940007A7309A9284603F041FC4FF47A733246B2
:101950000DA9284603F0E6FD324639465E48644D3F
:1019600002F08CF89DF83430D32B04BF614B1E700D
:10197000614B0126C5E90036102240230024C5E949
:1019800004234FF4C073C5E906344FF40063C5E97E
:1019900008344FF4005302274FF00409AB624FF0B4
:1019A000030A07230DA92846CDE90D73CDE90F934E
:1019B0004FF00808C5E90249CDE911A7139703F0D4
:1019C0008DFA4FF6FF7209A92846CDE90A860894D8
:1019D00009960C9403F0A2FA304601F0F5FD4FF69B
:1019E000FF7209A92846CDE90978CDE90B6403F017
:1019F00095FA4FF6FF7209A92846CDE909A8CDE965
:101A00000B9403F08BFA4FF40C730893089B0C9320
:101A10004FF6FF7209A92846CDE909980B9603F005
:101A20007DFA40F26A51284603F096FA34220DEB13
:101A3000020021461FF06EF8304D314B2C61C5E994
:101A400000340923C5E905361D23C5E9073A40F2EC
:101A50000D1140F24313C5E9091340F2171040F28B
:101A60004713C5E90B032846C5E90244AC8685F84F
:101A7000364002F013FDFF214FF4806CF022CDE9D7
:101A800012140521CDE914C14FF4A0730DA9CDE9BD
:101A90000E24CDE91642284622461A4D1893CDE968
:101AA00010370D94ADF864408DF8664002F0C1FD2A
:101AB000154B2B601B6898472B68144DDB689847C3
:101AC000134B2846C5E9003428E000BF0038024027
:101AD000001002403825002000080240000C02409F
:101AE000CC25002000300240A086010038240020D0
:101AF00004240020F8230020400100A090240020AE
:101B000000680140F0230020140000208C250020F4
:101B100000B0024000500140005C0040C5E9027482
:101B2000C5E90A47C5E90C4401F0C4FD3146284621
:101B300001F076FEFEF7BCFDFEF7B9FD03F096FF5F
:101B400022460C210A2004F0ACF80B4B0B4A18601B
:101B500021460B4803F0B6FF0A4B0B4A186021469A
:101B60000A4803F0AFFF0A4B186003F091FF6420AE
:101B700001F02AFDFBE700BFF4230020CC2302087C
:101B8000B116000800240020A8230208BF060008A0
:101B9000FC230020704770477FB5094B8DF8172054
:101BA0001B6802930DF117020123009201930A466C
:101BB0000146044802F018FA07B05DF804FB00BFC4
:101BC00010000020382500207FB500238DF8173045
:101BD000084B1B6802930A4601230DF1170100917F
:101BE00001930146044802F08FFA9DF8170007B0F0
:101BF0005DF804FB10000020382500201FB5084CBC
:101C000024680092CDE901340A46012301460548C3
:101C100002F07AFA003818BF012004B010BD00BFEE
:101C2000100000203825002001F0CEBC10B5064C75
:101C300000222046042101F021FF20460122BDE8B8
:101C40001040042101F01ABF0008024038B50B4DC6
:101C5000044601220A484FF4005101F00FFF002210
:101C60000421284601F00AFF2046FFF70FFD284611
:101C70000122BDE83840042101F000BF0008024005
:101C8000000C024038B50B4D044600220A484FF4C0
:101C9000005101F0F3FE00220421284601F0EEFE7F
:101CA0002046FFF7F3FC28460122BDE83840042116
:101CB00001F0E4BE00080240000C0240F7B5144EEB
:101CC000144F05460C4630460022042101F0D6FE92
:101CD00000224FF40051384601F0D0FE2846FFF7AD
:101CE000D5FC0D4B0D481B68224601A903F01AFCD8
:101CF000384601224FF40051019C01F0BFFE3046EE
:101D00000122042101F0BAFE204603B0F0BD00BF5D
:101D100000080240000C02400C0000203824002083
:101D200001F052BC0268034B9A4201D101F03ABC67
:101D3000704700BF001000407047000037B5012B0E
:101D400094BF41F0800141F0C00116488DF80710A2
:101D50001546022100221C4601F090FE12484FF069
:101D6000FF3301220DF1070103F030FA40B10D48B5
:101D70000122022101F082FE4FF0FF3003B030BD9E
:101D8000224609484FF0FF33294603F0CBFB0446B7
:101D90000028ECD103480122022101F06FFE204609
:101DA000ECE700BF0008024038240020B0B51C4614
:101DB00008336846DB08A0EBC30300AF9D4601F083
:101DC0007F018DF800106D46013A0DEB04018B4246
:101DD00017D110480022022101F050FE621C92B27D
:101DE00029460D484FF0FF3303F0F0F90446012275
:101DF0000848022154B101F041FE4FF0FF30BD46CA
:101E0000B0BD12F8010F03F8010FE0E701F036FE54
:101E10002046F4E70008024038240020F0B5274FA0
:101E20003A7889B00023012A8DF804308DF8083003
:101E300041D0234C234A2260234A24486260022670
:101E4000234AE260012503A905930793CDE90365C1
:101E5000069601F029FD1D4831462A4601F00EFE86
:101E60000DF10B01204601F0CFF818B14FF0FF3013
:101E700009B0F0BD0F238DF8043001AA2B462021B4
:101E8000204601F08AF80028F0D1052001F09CFBE3
:101E90002B4602AA2321204601F072F80028E5D142
:101EA0008DF80C002B4603AA2321204601F075F87B
:101EB0000028DBD13D700020DAE700BFD4250020E8
:101EC000D8250020AD1D00083D1D00080008024077
:101ED0003824002030B52DED028B174B1B7883B0D2
:101EE000054633B94FF0FF34204603B0BDEC028BFA
:101EF00030BD1248694601F069F804460028F1D166
:101F0000BDF900009FED0E8A01F054F8C0EE087A8A
:101F1000BDF90200C5ED007A01F04CF8C0EE087A78
:101F2000BDF90400C5ED017A01F044F8C0EE087A6D
:101F3000C5ED027AD8E700BFD4250020D8250020BF
:101F400000007A4482B00E4B00220092596C41F49A
:101F500080415964596C01F48041009100990192CB
:101F6000196C41F0805119641B6C03F0805301938C
:101F7000019B0F216FF0010002B001F04BBB00BFCD
:101F8000003802400268094B9A4282B00BD100230C
:101F90000193074B1A6B42F480521A631B6B03F4D4
:101FA00080530193019B02B0704700BF0030024094
:101FB0000038024007B50F4B02689A4216D1002242
:101FC000A3F5F0430192196B41F4000119631B6BF7
:101FD00003F40003019305215A20019B01F01AFB31
:101FE0005A2003B05DF804EB01F046BB03B05DF886
:101FF00004FB00BF00B002402DE9F043044689B065
:102000001422002103A81EF085FD2268244B9A4269
:1020100043D1244C244800250095236B43F004034E
:102020002363236B03F004030093009B0195236B50
:1020300043F001032363236B03F001030193019B2E
:102040004FF012094FF400734FF0010803270426E4
:1020500003A9CDE90339CDE90587079601F024FCF2
:102060004FF480731148079603A9CDE90339CDE9F0
:10207000058701F019FC0295236C43F400032364E7
:10208000236C03F400030293029B236A43F40003CE
:102090002362236A23F40003236209B0BDE8F083BE
:1020A000005C00400038024000080240000002408E
:1020B000F0B599B004461422002107A81EF02AFDAD
:1020C00030220DEB020000211EF024FD22685E4B41
:1020D0009A4240F0B78008230C93C0231093042346
:1020E00012930CA84FF40033159302F0CBFD08B106
:1020F000FFF722FE554B5648002400945A6C42F0DC
:1021000080625A645A6C02F080620092009A0194D4
:102110001A6B42F020021A631A6B02F0200201923D
:10212000019A02941A6B42F001021A631A6B02F0D0
:1021300001020292029A03941A6B42F002021A639D
:102140001A6B02F002020392039A04941A6B42F093
:1021500040021A631A6B02F040020492049A05943A
:102160001A6B42F004021A631A6B02F00402059221
:10217000059A06941A6B42F008021A631B6B03F06F
:102180000803069302250E26069B0B964FF48063E8
:1021900007A9CDE90735CDE9094501F085FB41F6F1
:1021A00058032C480B9607A9CDE907350927CDE937
:1021B000094501F079FB032327480B9707A9CDE9CF
:1021C0000735CDE9094501F06FFB4FF470632248F4
:1021D0000B9607A9CDE90735CDE9094501F064FB68
:1021E0004FF40C631D480B9607A9CDE90735CDE9DF
:1021F000094501F059FBC02319480B9607A9CDE901
:102200000735CDE9094501F04FFB082315480B962A
:1022100007A9CDE90735CDE9094501F045FB4FF4A4
:10222000A0530E480B9707A9CDE90735CDE909451D
:1022300001F03AFB58202246052101F0EBF9582025
:1022400001F01AFA19B0F0BD0068014000380240F0
:102250000014024000000240000402400018024046
:1022600000080240000C024010B5044688B0142259
:10227000002103A81EF04EFC2268144B9A4223D181
:1022800003F56843002101915A6C114842F4801211
:102290005A645A6C02F480120192019A02911A6BEC
:1022A00042F020021A631B6B03F020030293029B8F
:1022B0004FF4607202230321CDE903230523CDE906
:1022C000061303A901F0F0FA08B010BD0050014058
:1022D000001402402DE9F04186B0002303932B4BFC
:1022E0001C68002C4FD14FF00108C3F80080284B28
:1022F00000949A6B274842EA08029A639B6B03EAB0
:1023000008030093022703260C25009B01A94FF622
:102310003F03CDE90137CDE9046501F0C5FA1E4858
:10232000059501A9CDE90187CDE9034601F0BCFA85
:1023300048F233131948059501A9CDE90137CDE9D4
:10234000034601F0B1FA4FF683731548059501A9CC
:10235000CDE90137CDE9034601F0A6FA4CF203734B
:102360001048059501A9CDE90137CDE9034601F0F3
:102370009BFA60230C48059501A9CDE90137CDE909
:10238000034601F091FA06B0BDE8F081E82500208F
:1023900000380240001402400008024000180240C9
:1023A00000100240000C02400004024070B588B0EA
:1023B00000230293204B1A6C42F010021A641B6C2B
:1023C00003F010030293054601A903A8029B02F043
:1023D0003BFC069B4BBB02F027FC184E184B3360AE
:1023E00040F2E733F360174BB0FBF3F3013B73604C
:1023F000304600233361B360B36103F063FA0446EF
:1024000080B9304603F034F9044658B9362001F05B
:1024100033F90F2D0DD822462946362001F0FAF85F
:10242000094B1D60204608B070BD02F0FDFB400066
:10243000D3E70124F6E700BF00380240EC25002076
:102440000010004040420F007C0000207047FEE773
:10245000FEE7FEE7FEE77047014803F047B900BF1B
:10246000EC250020014802F087B800BF902400202E
:10247000014801F04BB900BF8C25002001207047B6
:1024800008B51EF0E9FB162303604FF0FF3008BDCE
:1024900008B51EF0E1FB16230360FEE770B50D469C
:1024A00014460E46731B9C4201DC204670BDAFF300
:1024B000008006F8010BF5E770B50D4614460E4690
:1024C000731B9C4201DC204670BD16F8010BAFF374
:1024D0000080F5E74FF0FF3070474FF400534B603A
:1024E0000020704701207047002070470A4A116899
:1024F00008B5034609B909491160106869460344E3
:102500008B4206D91EF0A8FB0C2303604FF0FF306E
:1025100008BD1360FCE700BF342600209041012075
:10252000704710B5042104461DF0BDF8204610BDCB
:10253000012908B506D0022908D059B900F00AFCD3
:10254000006808BD00F006FC4068FAE700F002FCF5
:102550008068F6E70020F4E700487047042402088A
:102560000120704713B5002451B1036801948DF820
:10257000034001AA9C680DF10303A04702B010BDFF
:102580000846FBE7C0897047008A7047C0887047DB
:1025900080887047807A00F07F007047807AC00999
:1025A00070470020704700009FED010A704700BF90
:1025B000000000007047704700F59873086849688C
:1025C00003C370477047704741607047704770475A
:1025D000064BC0F84C310023C0F8503100F5A2730F
:1025E000C0F84801C0F84031704700BF912600088C
:1025F000012303727047704710B4C26841685410D9
:10260000034601EB6200D20748BF0A599B685DF898
:10261000044B48BFD35818470346406830B19A6806
:102620001AB9D86800F0010070470120704710B552
:102630000C2104461DF037F8204610BD10B51021BE
:1026400004461DF030F8204610BD10B54FF4AE71B1
:1026500004461DF028F8204610BD10B50AF08EFD86
:102660000368BDE81040DB6B184710B50446D0F88E
:10267000400158B10368DB68984738B1D4F840018D
:1026800003689B6898470023C4F8403110BD0000E0
:102690002DE9F14FD0E9556A0746B06803681B6A17
:1026A000984740F6E763984205D8444B444AA32133
:1026B00044481DF035FF706803681B6A98470F286F
:1026C00003D8414B3E4AA421F2E7F06803681B6A35
:1026D00098470B2803D83D4B394AA521E8E70AF073
:1026E0004DFDDFF8F09004300AF06DFDD9F80000E0
:1026F00010B10368DB689847D9F8000010B103688F
:102700001B689847DFF8D080D8F8000010B1036844
:102710005B699847D7F83C0110B103685B6898473C
:10272000D8F8000010B103681B689847D7F83C013F
:1027300010B103689B689847F068036800215B6AE2
:1027400098474FF0000B224BC0F804B0044680F8C5
:1027500008B00360B068036859465B6A984705464D
:1027600000F064FB7068036859465B6A9847294625
:10277000064600F039FB331DC7F83C61C9F800403C
:10278000C8F80050CAF800302B68C6F808A02846E0
:10279000DB68EE639847336830461B6898472146EC
:1027A00028460CF027FF236820461B6998472368BA
:1027B0005B69204601B0BDE8F04F18478C1B02084A
:1027C0001A1C0208EC1C0208331D0208D61D020860
:1027D0008C2402089434012090340120044B1B689F
:1027E00093F858200AB1D86C00B99868704700BFB8
:1027F0004C34012070B504460D4616460AF080FDA3
:10280000104A1460104A2260104A0023C4E9512380
:10281000C4E95333C4E94F330D4B186803680121F1
:102820009B68C4E955659847FFF7D8FF14F057FE39
:10283000FFF7D4FF14F0CEFEFFF7D0FF14F0D6FE62
:10284000204670BDA034012038240208202402084C
:102850004C340120064BC0F84C310023C0F85031F5
:1028600000F5A273C0F84801C0F84031704700BFBE
:1028700091260008406A7047806A704770478A88CE
:102880000B8810B5D20A4C88C1699BB251F822005E
:1028900043EA0443184410BD10B50446BAB1107B96
:1028A00068B1537BD27A1B0203F4E0631A43236AB4
:1028B00003EB82031A888A4202D193F9020010BD09
:1028C00005D8013880B204330028F3D1F7E700209F
:1028D000F5E710B52C2104461CF0E5FE204610BD9E
:1028E00030B58BB00446BDF860500895BDF85C501B
:1028F00007959DF8505006959DF84C5005959DF80C
:10290000485004959DF8445003959DF84050029519
:102910009DF83C500195BDF8385000950CF038FA00
:10292000064B2360159BE361169B2362199B636230
:102930001A9BA36220460BB030BD00BFB024020832
:10294000704770477047704770477047704703681B
:10295000DB6A184710B5034B0360044609F0BEFB61
:10296000204610BD1825020810B5064B036004462A
:1029700009F0B4FB204640F6D8611CF094FE2046D6
:1029800010BD00BF182502082DE9F0411D4603685F
:10299000BDF918701B6B04461646984723683146EC
:1029A00020465B6B98472368294620469B6B9847D7
:1029B000236839462046DB6BBDE8F041184700002C
:1029C0002DE9F34704460CF069FC334B2360334B8D
:1029D0000025C4E910354FF4807304F16C07A4F8A6
:1029E0006430FF2384F8663004F1B409C4E9125559
:1029F000C4E91455C4E91655E5632566A56638464D
:102A000007F06CFF4846FEF779FD254BC4F8B4305B
:102A100024334FF4A076C4F8BC3004F1C80004F1AC
:102A2000400AC4F8C0504FF4616109F04DFB2A46DA
:102A3000294650460096F023FFF7A6FF04F104084C
:102A40004FF07F43A3665146404605F001F9142339
:102A50000093962238466E21FFF796FF4FF43453C9
:102A6000C4F8A8300F4BC4F8C0304FF47843404648
:102A7000C4E92666C4F8A060C4F8AC50C4F8A450F9
:102A8000A4F8C430C4F89490394605F0E1F8204623
:102A900002B0BDE8F08700BF1825020878290208B7
:102AA000382702080000FFFF7047000030B5164DC0
:102AB0002C6814F001048FB0BFF35B8F20D128463F
:102AC0001CF0F3FDE0B13F230993104B0893104B2A
:102AD000104911480A940122CDE906430423CDE9A7
:102AE00003320A230093CDE90B44CDE90144059458
:102AF000FFF7F6FE09481DF031FD28461CF0E1FD08
:102B000005480FB030BD00BF38260020E43302086E
:102B1000F0330208B43302083C260020A92A00083A
:102B20007047000030B5164D2C6814F001048FB0CA
:102B3000BFF35B8F20D128461CF0B7FDE0B13F23E7
:102B40000993104B0893104B104911480A94012225
:102B5000CDE906430423CDE9033214230093CDE9E4
:102B60000B44CDE901440594FFF7BAFE09481DF076
:102B7000F5FC28461CF0A5FD05480FB030BD00BF90
:102B800068260020E8330208F4330208C433020840
:102B90006C260020212B00087047000030B5164D30
:102BA0002C6814F001048FB0BFF35B8F20D128464E
:102BB0001CF07BFDE0B13F230993104B0893104BB1
:102BC000104911480A940122CDE906430423CDE9B6
:102BD000033228230093CDE90B44CDE90144059449
:102BE000FFF77EFE09481DF0B9FC28461CF069FD80
:102BF00005480FB030BD00BF98260020EC33020816
:102C0000F8330208D43302089C260020992B0008D0
:102C100000207047002070470EB403B503AB0021BD
:102C200053F8042B01930BF031FB02B05DF804EB79
:102C300003B070470CB407B504AB53F8042B0193F1
:102C40000BF024FB03B05DF804EB02B0704700000A
:102C5000436C10B5044673B3038F2BB9184B194A54
:102C6000C52119481DF05CFCC38E00EB43035B8C4F
:102C70000BB30DF0B2F9238F012B03D8134B144A79
:102C8000CB21EEE7E28E531C9BB2092B194688BF7D
:102C9000A3F10A0104EB410140F63F10498C814247
:102CA00009D10A2B04EB420228BF002304EB4303A3
:102CB000508C588451842046BDE810400DF090B8E7
:102CC000791E0208821E02082D1F0208771F0208C3
:102CD000851F02080DF04BB838B518BB124B1348CE
:102CE0001C681349B4B1226822440260626822441D
:102CF0000A60A26814440F4B00221A8000F02AF8E0
:102D0000054600F025F80C4B1C600C4B1D600C4B6D
:102D1000188007E00B4B03600B4B0B600B4B1C68E0
:102D2000002CE8D138BD00BFD4260020CC260020DE
:102D3000C8260020D0260020A4340120AC34012075
:102D4000A834012000340208FC33020804340208CD
:102D50000020704700487047D826002010B5FFF7C4
:102D6000E1FE044C2060FFF719FF6060FFF79EFE54
:102D7000A06010BDD826002010B5002404600C60AF
:102D800014601C6010BD704710B54FF4AE7104465E
:102D90001CF089FC204610BD10B50446D0F858013F
:102DA00000F013F82046BDE810400AF069BA0000B0
:102DB00010B50446FFF71EFD014B2360204610BDF1
:102DC000502502080022026070477047704704389F
:102DD0007047704710B5102104461CF064FC204673
:102DE00010BDA0F10400F5E700228260024A0260F3
:102DF00018324260C1607047A42502087047000085
:102E000010B5034B03600446FFF7A4FD204610BD38
:102E1000CC25020810B50446FFF7F2FF204640F625
:102E2000E8611CF040FC204610BD000010B50446CF
:102E3000FFF7C6FD04F6DC61064B23600022002389
:102E4000C4F8D83E0A6004F56E6120460A60C4F8F2
:102E5000E43E10BDCC25020810B50446FFF776FD10
:102E6000236FC4F8E43E10BDF0B5414B044618682A
:102E700085B004F6DC6604F56E6798B300231A4645
:102E800001A902F07AFF68BBDFED3A6A9DED027A94
:102E9000D6ED007A9DED016AE7EE267A97ED007A8D
:102EA000A6EE267ADFED346AF4EEE67AF1EE10FA59
:102EB00054DC9FED326AF4EE467AF1EE10FA48BF28
:102EC000F0EE467AB4EEE67AF1EE10FAC6ED007A4C
:102ED00047DCDFED2A7AB4EEE77AF1EE10FA43D45C
:102EE00087ED007AD7ED007AB4F87210B4F870006C
:102EF000B1EE0C7A67EE877A6FF06302FDEEE77A47
:102F000004F16C0517EE903AD6ED007A1BB29342AD
:102F100067EE877AB8BF1346B4F8E62EFDEEE77A7F
:102F2000521A642BD4BFD218643217EE903A6FF065
:102F3000C7011BB28B42B8BF0B46B4F8E41E091A96
:102F4000C82BD4BFC918C83112B209B228460BF039
:102F500049FB284608F0B4F905B0F0BDF0EE667AFA
:102F6000B0E79FED057ABBE7C7ED007ABAE700BF8F
:102F7000F42300200AD7A33C00008C4200008CC23E
:102F800010B428B14468C068A4465DF8044B60479B
:102F90004FF0FF305DF8044B704710B428B104685F
:102FA000C068A4465DF8044B60474FF0FF305DF801
:102FB000044B704707EE900A9FED030AF8EEE77A9C
:102FC00027EE800A704700BF00000C4113B50623AE
:102FD0000C466A462821FFF7D3FF9DF801209DF893
:102FE000003003EB022323809DF803209DF802307C
:102FF00003EB022363809DF805209DF8043003EB6A
:103000000223A38002B010BD08B50A4601230F2198
:10301000FFF7B6FF08BDF02070474FF4A07070476F
:103020002920FEF72FBE2820FEF72CBE08B5FEF79C
:10303000FDFDCA20FEF726FEC320FEF707FE08208E
:10304000FEF704FE5020FEF701FECF20FEF71AFE29
:103050000020FEF7FBFDC120FEF7F8FD3020FEF753
:10306000F5FDED20FEF70EFE6420FEF7EFFD0320D8
:10307000FEF7ECFD1220FEF7E9FD8120FEF7E6FDEC
:10308000E820FEF7FFFD8520FEF7E0FD0020FEF7BB
:10309000DDFD7820FEF7DAFDCB20FEF7F3FD3920C9
:1030A000FEF7D4FD2C20FEF7D1FD0020FEF7CEFD6B
:1030B0003420FEF7CBFD0220FEF7C8FDF720FEF717
:1030C000E1FD2020FEF7C2FDEA20FEF7DBFD002037
:1030D000FEF7BCFD0020FEF7B9FDB120FEF7D2FDE2
:1030E0000020FEF7B3FD1B20FEF7B0FDB620FEF773
:1030F000C9FD0A20FEF7AAFDA220FEF7A7FDC02009
:10310000FEF7C0FD1020FEF7A1FDC120FEF7BAFDBD
:103110001020FEF79BFDC520FEF7B4FD4520FEF70D
:1031200095FD1520FEF792FDC720FEF7ABFD902020
:10313000FEF78CFD3620FEF7A5FDC820FEF786FDC4
:10314000F220FEF79FFD0020FEF780FDB020FEF785
:1031500099FDC220FEF77AFDB620FEF793FD0A2006
:10316000FEF774FDA720FEF771FD2720FEF76EFD28
:103170000420FEF76BFD2A20FEF784FD0020FEF7F9
:1031800065FD0020FEF762FD0020FEF75FFDEF20E9
:10319000FEF75CFD2B20FEF775FD0020FEF756FDC7
:1031A0000020FEF753FD0120FEF750FD3F20FEF703
:1031B0004DFDF620FEF766FD0120FEF747FD0020DD
:1031C000FEF744FD0620FEF741FD2C20FEF75AFDD8
:1031D000C820FEF7A5FD2620FEF754FD0120FEF7CE
:1031E00035FDE020FEF74EFD0F20FEF72FFD2920D4
:1031F000FEF72CFD2420FEF729FD0C20FEF726FD0E
:103200000E20FEF723FD0920FEF720FD4E20FEF7DD
:103210001DFD7820FEF71AFD3C20FEF717FD092062
:10322000FEF714FD1320FEF711FD0520FEF70EFD3D
:103230001720FEF70BFD1120FEF708FD0020FEF71A
:1032400005FDE120FEF71EFD0020FEF7FFFC162025
:10325000FEF7FCFC1B20FEF7F9FC0420FEF7F6FC51
:103260001120FEF7F3FC0720FEF7F0FC3120FEF7FB
:10327000EDFC3320FEF7EAFC4220FEF7E7FC0520D8
:10328000FEF7E4FC0C20FEF7E1FC0A20FEF7DEFC72
:103290002820FEF7DBFC2F20FEF7D8FC0F20FEF7DE
:1032A000D5FC1120FEF7EEFCC820FEF739FD2920E1
:1032B000FEF7E8FCBDE808402C20FEF7E3BC08B5AB
:1032C000FEF7B4FC0321D320FEF7F8FC80B208BD62
:1032D00010B5C4B2022203212046FEF75DFC0A208D
:1032E000FEF7A2FC204600220321FEF755FCBDE8B4
:1032F00010400220FEF798BC38B50446E4B2FEF751
:1033000049FC00212046FEF75FFC012105462046CE
:10331000FEF75AFC40EA052080B238BD10B5C4B2B1
:1033200040212046FEF750FC030607D54C212046DD
:10333000FEF74AFC003818BF012010BD01224B21C6
:103340002046FEF729FC204600224B21FEF724FCF4
:103350000020F2E773B50423C4B20E461546D72108
:103360000DEB03022046FEF749FC019B1BBA1A0D28
:10337000C3F30B23328020462B8001224B21FEF722
:103380000BFC00224B212046FEF706FC02B070BD6C
:1033900010B50A4A1378984204460DD051788842F5
:1033A0000AD00BB141B90123D454FEF7F3FB2046F8
:1033B000BDE81040FFF78CBF10BD00BFE426002021
:1033C00010B5C4B209212046FEF7FEFB40F0010211
:1033D000D2B220460921BDE81040FEF7DDBB10B592
:1033E000C4B209212046FEF7EFFB092100F0FE02DE
:1033F0002046BDE81040FEF7CFBB38B5C4B20D463D
:1034000020460A21FEF7E0FB40EA0502D2B2204640
:103410000A21BDE83840FEF7BFBB10B50446FEF7F1
:10342000BAFB20461F21FFF7E8FF2046BDE8104009
:10343000FFF7C6BF38B5C4B20D4620460A21FEF7D5
:10344000C3FB20EA0502D2B220460A21BDE838407B
:10345000FEF7A2BB10B50446FFF7C1FF20461F21AF
:10346000BDE81040FFF7E6BF10B5C0B20C460B2117
:10347000FEF7AAFB204010BD1F21FFF7F5BF0A464B
:10348000C0B20B21FEF788BB1F21FFF7F8BF38B58C
:10349000C4B20D4620461721FEF796FB20EA05022E
:1034A000D2B220461721BDE83840FEF775BB70B593
:1034B000C4B2064604212046FEF786FB042100F034
:1034C000FB0205462046FEF767FB3046F021FFF77A
:1034D000DEFF05F0F80220460421FEF75DFB4922DD
:1034E00020212046FEF758FB0220FEF79DFB2046D8
:1034F00001222121FEF750FB20469A224121FEF7AE
:103500004BFB204601224A21FEF746FB20460122C2
:103510004B21FEF741FB204600224B21FEF73CFBEE
:10352000204601225621FEF737FB20460122582172
:10353000FEF732FB204601224021FEF72DFB2046FC
:10354000FF220B21FEF728FBBDE870400220FEF7AA
:103550006BBB0000054BD3F8882042F47002C3F81F
:1035600088204FF000629A60704700BF00ED00E0D5
:1035700008B50B4B1A6842F400721A601A6842F4DC
:1035800080621A601A6842F480721A60032000F0A8
:103590002FF80020FEF70AFFFEF7D4FC002008BD3C
:1035A000003C0240034A044B11681B780B44136033
:1035B000704700BFE826002078000020014B186803
:1035C000704700BFE826002038B50446FFF7F6FF35
:1035D000631C1CBF054B1B78054618BFE418FFF79A
:1035E000EDFF431BA342FAD338BD00BF7800002093
:1035F0000749CA6822F4E0620302120403F4E0639C
:10360000120C134343F0BF6343F40033CB607047A5
:1036100000ED00E0164B30B5DC68C4F30224C4F1C1
:103620000703251D042B28BF0423062D4FF0FF356B
:103630008CBF033C002405FA03F321EA0303A540F1
:1036400022EA0502A340002843EA0203ACBF00F1CE
:103650006040084A4FEA0313B8BF00F00F00DBB226
:10366000AABF00F56140135480F8003330BD00BF9D
:1036700000ED00E014ED00E0002807DB044A4109FA
:10368000012300F01F00834042F82130704700BF43
:1036900000E100E010B5044650B1437903F0FF02A9
:1036A00013B90271FEF76EFC01236371002010BD97
:1036B0000120FCE710B5044620B390F8393003F040
:1036C000FF021BB980F83820FEF774FC022384F84F
:1036D0003930236861681A6822F440320A431A605C
:1036E0005A6BA16822F007020A435A631A6CE16818
:1036F0006FF30D020A431A6400200123E06384F88B
:10370000393010BD0120FCE770477047036870B581
:103710005E681D68F207044614D5E90512D51A68DB
:1037200022F480721A60C26B42F00102C26301226D
:103730009A60042380F83930002380F838304369D8
:1037400003B19847B20616D5AB0414D523681A689E
:1037500022F400521A6020229A60E36B43F00203C5
:10376000E363042384F83930002384F83830636934
:103770000BB120469847300716D5290514D5236884
:103780001A6822F400621A6008229A60E36B43F020
:103790000403E363042384F83930002384F83830C9
:1037A00063690BB12046984772070BD56B0509D5A5
:1037B00023681A6822F480621A6004229A60204604
:1037C000FFF7A2FFB00714D5A90512D523681A6820
:1037D00022F400721A6002229A60E36BE363012311
:1037E00084F83930002384F8383023690BB120463F
:1037F0009847F20613D5EB0411D523681A6822F412
:1038000080521A6010229A60E36BE363012384F80C
:103810003930002384F838302046FFF776FF70BD3A
:10382000F0B590F83820012A03464FF002002BD063
:10383000012283F8382083F8390003EB0112D2E922
:103840000740556A174F44EA0040093C012C9CBFD1
:1038500005F07F4210434FEA01161A6888BF40EA1C
:10386000056091B9516A394001435162012C99694F
:10387000916103D8596A21F07F41916201220020B1
:1038800083F8392083F83800F0BDD169394001430D
:10389000D1619919012C896911619CBF25F07F457F
:1038A0001562EBE7F0FFFC002DE9F74FDFF8BC9164
:1038B0006C4A00230D6801249C4004EA0506AC43D1
:1038C00040F0B7804D68032705F003044FEA430832
:1038D00007FA08FC671E012F6FEA0C0C34D88768C2
:1038E00007EA0C0ECF6807FA08F747EA0E07876069
:1038F000476827EA060EC5F300179F4047EA0E0700
:103900004760C76807EA0C0E8F6807FA08F747EAAE
:103910000E07022CC76019D14FEAD30A00EB8A0ABE
:1039200003F0070BDAF820704FEA8B0B4FF00F0E05
:103930000EFA0BFE27EA0E0E0F6907FA0BF747EA9D
:103940000E07CAF8207001E0032CDAD1076804FAE8
:1039500008F407EA0C073C4315F4403F046068D0C4
:1039600000240194D9F8444044F48044C9F8444008
:10397000D9F8444023F0030707F1804704F480445A
:1039800007F59C37019403F0030C019CD7F808E07D
:103990004FEA8C0C0F2404FA0CF42EEA040E324C7D
:1039A000A0424DD004F58064A0424BD004F5806461
:1039B000A04249D004F58064A04247D004F5806459
:1039C000A04245D004F58064A04243D004F5806451
:1039D000A04241D004F58064A0423FD004F5806449
:1039E000A0423DD004F58064A04214BF0A240924FB
:1039F00004FA0CF444EA0E04BC609468F74315F42E
:103A0000801F0CBF3C4034439460D46815F4001F01
:103A10000CBF3C403443D460546815F4003F0CBFE5
:103A20003C40344354601468ED0354BF3C4034437D
:103A300014600133102B7FF43DAF03B0BDE8F08F6D
:103A40000024D5E70124D3E70224D1E70324CFE7FC
:103A50000424CDE70524CBE70624C9E70724C7E7FC
:103A60000824C5E7003C0140000002400038024045
:103A70000369194214BF0120002070470AB1816117
:103A800070470904FBE7436901EA030221EA0301E5
:103A900041EA02418161704701684B6913F4806318
:103AA0004FF0000210D06FF480634B61202302635B
:103AB00080F83D3080F83E20036C80F83C2043F0D5
:103AC0000403036401207047184670472DE9F84647
:103AD00006460F4691461D464FEA114A3368BAF131
:103AE000010F0CBF5C699C6927EA0404A4B2B4FA14
:103AF00084F46409A14501D0002025E06A1CEED0C1
:103B0000FFF75CFD089BC01AA84201D8002DE5D143
:103B10003368BAF1010F0CBF5B699B6927EA0303A5
:103B20009BB2B3FA83F35B099945D7D100232022D6
:103B3000336386F83D2086F83E30326C86F83C30A0
:103B400042F0200232640120BDE8F8862DE9F04100
:103B500004460F46164698462568686927EA00001D
:103B600080B2C0B16B695A0517D52B6843F4007356
:103B70002B606FF480636B6120220023236384F841
:103B80003D2084F83E30236C43F00403236400237B
:103B900084F83C300120BDE8F081731CDDD0FFF7D4
:103BA0000DFDA0EB0800B04201D8002ED4D123684F
:103BB0005A6927EA020292B2002ACDD000232022BD
:103BC000236384F83D2084F83E30236C1343DDE703
:103BD00070B504460D46164623685B691B0601D581
:103BE00000201EE02046FFF757FFC8B96A1CF3D03B
:103BF000FFF7E4FC801BA84201D8002DECD123681C
:103C00005B6913F08003E7D12022236384F83D2011
:103C100084F83E30226C84F83C3042F0200222646A
:103C2000012070BD2DE9F0431546026885B0DDE93D
:103C30000C789946136843F4807313600E463B4634
:103C4000CDF8008000224FF001110446FFF73EFF3F
:103C5000236838B11B68DB0502D54FF40073236479
:103C6000032620E006F0FE061E611A4943463A4646
:103C70002046FFF76BFFA8B9236803905A690392A7
:103C80009B690393424639462046039BFFF7A0FFFA
:103C9000064660B1236C042B01BF2268136843F40D
:103CA000007313600126304605B0BDE8F083B9F11A
:103CB000010F236802D1EDB21D61F4E72A0A1A61EF
:103CC000394642462046FFF783FF0028E2D12368A9
:103CD000F1E700BF020001002DE9FF479A460368A3
:103CE00015461A6842F480621A601A68DDE90C7899
:103CF00042F480721A600E463B46CDF800800022E6
:103D00004FF001110446FFF7E1FE236838B11B684C
:103D1000DB0544BF4FF400732364032021E05FFA06
:103D200086F906F0FE061E612B4943463A462046B8
:103D3000FFF70CFFA0B9236803905A6903929B69AF
:103D40000393424639462046039BFFF741FF58B193
:103D5000236C042B01BF2268136843F400731360C3
:103D6000012004B0BDE8F087BAF1010F23681AD131
:103D7000EDB242461D6139462046FFF729FF024653
:103D80000028E5D121680B6843F480730B6020465E
:103D9000CDF800803B464FF00111FFF797FE2268F7
:103DA00060B11368B4E72A0A1A61394642462046D0
:103DB000FFF70EFF0028CBD12368D9E749F00103B4
:103DC0001361054943463A462046FFF7BFFE0038D7
:103DD00018BF0120C5E700BF0200010070B504460E
:103DE0000D46164623685B695B0701D500201EE07F
:103DF0002046FFF751FEC8B96A1CF3D0FFF7DEFB7F
:103E0000801BA84201D8002DECD123685B6913F018
:103E10000403E7D12022236384F83D2084F83E3058
:103E2000226C84F83C3042F020022264012070BDF4
:103E300070B504460D46164621684B6913F04003E1
:103E400001D0002011E04A69D2060FD56FF01002B0
:103E50004A612022236384F83D2084F83E30236C9D
:103E60002364002384F83C30012070BDFFF7A6FBDB
:103E7000801BA84201D8002DDED123685B6913F0B6
:103E80004003D9D12022236384F83D2084F83E30BA
:103E9000236C1343E4E7000070B5044608B9012021
:103EA00070BD90F83D3003F0FF021BB980F83C2054
:103EB000FEF7A2F8242384F83D3023681A6822F024
:103EC00001021A601A6842F400421A601A6822F469
:103ED00000421A6000F0A8FE3F4B65689D4294BF07
:103EE0003E4B3F4B98428CBF00230123002BD6D181
:103EF0002268394E51683B4BB0FBF3F321F03F0190
:103F00001943B542516088BF4FF49676116A88BF55
:103F1000734321F03F0184BF4FF47A76B3FBF6F38D
:103F200001330B431362D169431E2B4821F44F41E7
:103F3000854221F0FF0132D86D0040F6FC70B3FBE2
:103F4000F5F30133034242D0C3F30B031943D161AC
:103F5000D4E907301168034321F0C0010B4313601B
:103F60009168D4E9030321F40341034321F0FF01E5
:103F70000B439360D4E90530D168034321F0FF017E
:103F80000B43D360136843F0010313600020202328
:103F9000206484F83D30206384F83E0080E7A06808
:103FA00050B905EB4505B3FBF5F30133C3F30B0340
:103FB0007BB143F40043C9E719206843B3FBF0F336
:103FC0000133C3F30B0323B143F44043BEE704239F
:103FD000BCE70123BAE700BFA08601007F841E0072
:103FE000FF083D0040420F002DE9F7430446994683
:103FF0000C9E0F469046FFF7E1FA94F83D30202BD7
:10400000054603D0022003B0BDE8F08300903C4990
:10401000192301222046FFF759FD0028F2D194F818
:104020003C30012BEED02068012384F83C3003683B
:10403000D9075EBF036843F001030360036823F4FC
:1040400000630360212384F83D30402384F83E3030
:10405000002323640A9B6362BDF82C306385638D63
:104060002385284BE3624246CDE900654B4639463D
:104070002046FFF7D7FD00282AD00120C3E7FFF72D
:10408000A7FD40B1236C042B01BF2268136843F4E1
:1040900000731360F1E7636A27681A4612F8011B80
:1040A00039616262628D218D013A92B262857A69CC
:1040B000481E80B2520720850AD548B15A783A6125
:1040C00002336362638D013B02399BB221856385B4
:1040D000238D2A4631462046002BD0D1FFF77EFEA5
:1040E0000028CFD12268136843F4007313602023A3
:1040F00084F83D3084F83C0084F83E0083E700BF3C
:10410000020010000000FFFF2DE9F043044687B0D5
:104110009946109F0D469046FFF750FA94F83D30AF
:10412000202B064604D00225284607B0BDE8F083C0
:1041300000907A49192301222046FFF7C7FC002886
:10414000F1D194F83C30012BEDD02068012384F8A4
:104150003C300368DB075EBF036843F00103036084
:10416000036823F400630360222384F83D30402376
:1041700084F83E30002323640E9B6362BDF83C301C
:104180006385638D2385664BE3622946CDE900761E
:104190004B4642462046FFF79FFD054608B10125E4
:1041A000C2E7228D2368B2B902905A6902929A69D5
:1041B0000292029A1A6842F400721A60DFF864816F
:1041C000238D002B2CD1202284F83D2084F83C3014
:1041D00084F83E30A8E7012A0AD11A6822F48062E6
:1041E0001A6003905A6903929A690392039AE1E76D
:1041F000022A0ED11A6822F480621A601A6842F408
:1042000000621A6004905A6904929B690493049BAB
:10421000D4E705905A6905929B690593059BCDE704
:10422000032B56D8012B15D1324639462046FFF7CD
:10423000FFFD0028B3D123681A69636A1A70636AA4
:1042400001336362238D013B2385638D013B9BB268
:104250006385B5E7022B00963B464FF000024146CE
:10426000204619D1FFF732FC002898D123681A683C
:1042700042F400721A601A69636A1A70626A531C07
:104280006362238D013B2385638D013B9BB2638574
:1042900023681B695370D2E7FFF718FC0246002819
:1042A0007FF47DAF2368196821F480611960196972
:1042B000636A1970636A01336362238D013B23854E
:1042C000638D013B9BB26385414600963B46204689
:1042D000C8E7324639462046FFF7AAFD00287FF49A
:1042E0005EAF23681A69636A1A70628D616A013A67
:1042F00092B24B1C628522686362238D5069013B38
:104300009BB2400723857FF55BAF032B02BF136889
:1043100023F48063136013694B7090E70200100070
:104320000000FFFF0400010010B590F83D30202B85
:10433000DCB216D1242380F83D3003681A6822F0DD
:1043400001021A605A6A22F010025A625A6A114334
:1043500059621A6842F001021A6080F83D4000205C
:1043600010BD0220FCE730B590F83D30202BDCB2C8
:1043700016D10268242380F83D30136823F001032E
:104380001360556A4FF6F0732B400B439BB2536298
:10439000136843F00103136080F83D40002030BDF6
:1043A0000220FCE70068D1F800C0D20184328318F3
:1043B0002DE9F043C6685D684C68D1F8189005F4A3
:1043C00070455D60C5680CF10107C5F30B45C6F388
:1043D0000B4626443D4445EA06455D60C668CD6807
:1043E000C6F30A062E449D6805F470459D60C768B3
:1043F0008D68C7F30A0701353D4445EA06459D60CF
:104400001D690E6925F007051D614FF0000E1E6144
:1044100091F832709D6991F83180C3F818E091F8F5
:10442000305045EA096545EA082545EA07459D619A
:104430005D6925F0FF055D614D695D61DD6925F40C
:10444000E06525F00705DD61D1E907573D43DD61F2
:104450009D6A4D6AC3F828E0072E9D629CBF0E4DF1
:10446000AE5DDD6A05F0E025DD6288BF01268D6A5C
:10447000C96AA4EB0C0474437543033444EA05444D
:10448000DC621C6B6FF30A041C631963835843F0EE
:1044900001038350BDE8F0831426020838B50446B2
:1044A000002863D090F8A13003F0FF021BB980F818
:1044B000A020FDF7FDFD022384F8A13023689A694E
:1044C00022F070429A61D4E901200243E0689969C0
:1044D0000243206902430A439A619A682449606949
:1044E0000A409A609A6842EA0042A06902439A60D0
:1044F000DA68E0690A40DA60DA6842EA0042206A73
:104500000243DA601A69606A0A401A611A6942EA6B
:104510000042A06A02431A615A690A405A615A6904
:10452000E16A42EA0142216B0A435A61DA6A94F86D
:10453000350094F8361002F07F42DA62DD6A94F8B2
:1045400034202A4342EA002242EA0142DA625A6BEC
:1045500042F006025A639A6942F001029A61002011
:104560000123C4F8A40084F8A13038BD0120FCE781
:1045700000F800F070477047036870B59E6B5D6B84
:104580007207044614D5690712D55A6B22F004024B
:104590005A630422DA63D0F8A43043F00103C0F870
:1045A000A430002380F8A12080F8A030FFF7E2FFBC
:1045B000B20716D5AB0714D523685A6B22F0020256
:1045C0005A630222DA63D4F8A4301343C4F8A43047
:1045D000042384F8A130002384F8A0302046FFF79C
:1045E000C9FFF00710D5E9070ED523685A6B22F0F2
:1045F00001025A630122DA63002384F8A12084F8BF
:10460000A0302046FDF708F8320711D52B070FD54B
:1046100023685A6B22F008025A630822DA630123E6
:1046200084F8A130002384F8A0302046FFF7A3FFD0
:1046300070BD2DE9F04190F8A030012B06460F46E1
:1046400094464FF002001FD04FF0010886F8A0807A
:1046500086F8A10034240D4604FB02640FCD3834E3
:104660000FC40FCD0FC40FCD0FC42B68236030468D
:1046700062463946FFF796FE33680020C3F824806F
:1046800086F8A18086F8A000BDE8F08190F8A0200F
:10469000012A03464FF0020012D01A6883F8A100E5
:1046A000506B20F00100506306480164516B41F0EB
:1046B000010151630020012283F8A12083F8A000AA
:1046C000704700BF0068014037B500230193184BC5
:1046D000184D1A6C42F080521A641B6C03F0805320
:1046E0000193019B144B01221A64FEF767FF0446F5
:1046F0006B68DA030BD5104B0E4D01225A64FEF79E
:104700005DFF04466B689B030AD5002006E0FEF7B8
:1047100055FF001BB0F57A7FEAD9032003B030BD06
:10472000FEF74CFF001BB0F57A7FEBD9F5E700BF31
:10473000003802400070004000000E422DE9F341B5
:10474000044640B30368DE0710D423689D075BD49A
:104750002368190700F19D8023685A0700F1BD8086
:10476000A369002B40F0248100202CE08D4B9A6837
:1047700002F00C02042A07D09A6802F00C02082A00
:104780000BD15B68590208D5864B1B689A03DCD5B0
:104790006368002BD9D1012015E06368814DB3F522
:1047A000803F13D12B6843F480332B60FEF706FF64
:1047B0007C4E054633689B03C7D4FEF7FFFE401BC3
:1047C0006428F7D9032002B0BDE8F081B3F5A02F2B
:1047D00004D12B6843F480232B60E3E72A6822F49A
:1047E00080322A602A6822F480222A60002BDDD1E0
:1047F000FEF7E4FE06462B689F03A6D5FEF7DEFE15
:10480000801B6428F7D9DDE7664B9A6812F00C0F1D
:1048100007D09A6802F00C02082A11D15B685D0289
:104820000ED4604A1368990702D5E368012BB2D110
:104830001368216923F0F80343EAC103136087E793
:10484000E268594BB2B101221A60FEF7B7FE554D2E
:1048500006462B689B0707D52B68226923F0F803CF
:1048600043EAC2032B6073E7FEF7A8FE801B022811
:10487000EFD9A7E71A60FEF7A1FE4A4E0546336856
:104880009F077FF565AFFEF799FE401B0228F6D91A
:1048900098E76269444B82B10122C3F8802EFEF78B
:1048A0008DFE404E0546736F9B073FF555AFFEF7F3
:1048B00085FE401B0228F6D984E7C3F8802EFEF758
:1048C0007DFE384E0546736F9F077FF545AFFEF7B7
:1048D00075FE401B0228F6D974E7324B1A6C12F0B1
:1048E000805228D101921A6C42F080521A641B6CDB
:1048F00003F080530193019B01272C4D2B68D805B1
:104900001BD5A368274D012B27D12B6F43F0010343
:104910002B67FEF753FE234E054641F28838336F6E
:104920009A0739D5002F3FF41BAF1E4A136C23F0B2
:104930008053136414E70027DFE72B6843F4807388
:104940002B60FEF73BFE06462B68D905D9D4FEF74F
:1049500035FE801B0228F7D934E7052B04D12B6FD5
:1049600043F004032B67D0E72A6F22F001022A6785
:104970002A6F22F004022A67002BCAD1FEF71EFE1E
:1049800041F2883806462B6F9B07CBD5FEF716FE03
:10499000801B4045F7D915E7FEF710FE401B404548
:1049A000BDD90FE7003802400000474200700040C8
:1049B000374DAA6802F00C02082A3ED0022B354B74
:1049C0004FF000021A662BD1FEF7F8FD06462B6861
:1049D00099011FD4D4E907321343626A43EA821370
:1049E000E26A43EA0263A26A5208013A43EA0243D6
:1049F0006B60284B264D01221A66FEF7DFFD044648
:104A00002B689A013FF5B0AEFEF7D8FD001B0228D7
:104A1000F6D9D7E6FEF7D2FD801B0228D7D9D1E61A
:104A2000FEF7CCFD04462B689B017FF59DAEFEF79B
:104A3000C5FD001B0228F6D9C4E6012B3FF4ABAE3E
:104A40006B68E26903F4800191427FF4A4AE216AAD
:104A500003F03F028A427FF49EAE616A47F6C0725D
:104A60001A40B2EB811F7FF496AEA26A520803F49B
:104A70004031013AB1EB024F7FF48DAEE26A03F0B0
:104A80007063B3EB026F14BF012000209BE600BFF0
:104A90000038024000004742134908B58B6803F014
:104AA0000C03042B1CD0082B1CD14A684B684968A6
:104AB00013F4800314BF0D480D48C1F3881118BFCB
:104AC000002302F03F02A1FB0001FBF731FC064B83
:104AD0005B68C3F3014301335B00B0FBF3F008BD37
:104AE0000248FCE70248FAE70038024000127A0068
:104AF0000024F4002DE9F0410D46044610B90120D0
:104B0000BDE8F081434B1A6802F00F028A4228D3B5
:104B100021688F072DD4C80740D43E4B1A6802F095
:104B20000F02AA4265D8226851076BD4130707D534
:104B3000394A2169936823F4604343EAC1039360CF
:104B4000FFF7AAFF344B354A9B68C3F30313D35CCA
:104B5000D840334B1860334B1868FDF727FC002012
:104B6000CEE7CAB21A701B6803F00F038B42C6D19E
:104B7000CEE7294B11F0040F1EBF9A6842F4E052B1
:104B80009A600E0742BF9A6842F460429A609A683F
:104B9000A06822F0F00202439A60BCE762681E4BF4
:104BA000012A1CD11B6813F4003FA8D01A4EB36829
:104BB00023F003031343B360FEF700FD41F288388E
:104BC0000746B368626803F00C03B3EB820FA4D00E
:104BD000FEF7F4FCC01B4045F3D9032090E7911E7B
:104BE00001291B6802D813F0007FDEE713F0020FE3
:104BF000DBE7EAB21A701B6803F00F03AB427FF4E5
:104C00007EAF90E70449E0688B6823F4E0530343E8
:104C10008B608BE7003C024000380240042602080B
:104C2000740000207C000020044B054A9B68C3F3FD
:104C30008223D35C034A1068D84070470038024092
:104C4000FC250208740000200F2303600B4B9A68B8
:104C500002F0030242609A6802F0F00282609A68F1
:104C600002F4E052C2609B68DB0803F4E053036186
:104C7000034B1B6803F00F030B60704700380240C2
:104C8000003C0240036813F0430FF7B5044640F0C0
:104C90008880236813F00C0F45D08C4B8C4D00227C
:104CA0001A67FEF78BFC06462B68990000F1CB8053
:104CB00021684A0715D5D4E90403D5F888201B06D6
:104CC00002F0E04243EA80131343C5F88830D5F878
:104CD0008C30226A23F4F853013A43EA0223C5F8E0
:104CE0008C300B0714D57A4AA369D2F88810206952
:104CF0001B0701F0706143EA80130B43C2F8883050
:104D0000D2F88C30616A23F440330B43C2F88C3004
:104D10006E4B6F4E01221A67FEF750FC0546336852
:104D20009F0040F197802368980634D500230193B3
:104D3000674B684D1A6C42F080521A641B6C03F08A
:104D400080530193019B2B6843F480732B60FEF723
:104D500035FC06462B68D80540F183805C4DA26A7D
:104D60002B6F13F4407340F08380A36A03F4407206
:104D7000B2F5407F564A40F09E80916823F0704023
:104D800021F4F81120F4407001439160116FC3F3D6
:104D90000B030B4313672368DB0600F190800020B0
:104DA0004FE04A4B4A4E00229A66FEF707FC054642
:104DB00033681F013FD42168C80741BFD4E90123EC
:104DC0001B0743EA8213C6F884308A0715D5404A88
:104DD000E368D2F8840065681B0600F0E04043EA0F
:104DE00085130343C2F88430D2F88C00E36920F0C5
:104DF0001F00013B0343C2F88C304B060AD5E36821
:104E000062681B0643EA8213A26843EA0273304ACF
:104E1000C2F884302D4B2E4E01229A66FEF7CEFB4F
:104E2000054633681F013FF534AFFEF7C7FB401B53
:104E30000228F6D904E0FEF7C1FB401B0228B7D9CF
:104E4000032003B0F0BDFEF7B9FB801B02287FF6FC
:104E50002BAFF5E7FEF7B2FB401B02287FF65FAFF2
:104E6000EEE7FEF7ABFB801B02287FF673AFE7E7A8
:104E700002F4407293423FF478AF2B6F134A012142
:104E8000C2F8401E23F440730021C2F8401E2B6775
:104E90002B6FD9077FF569AFFEF790FB41F288379A
:104EA00006462B6F9A073FF560AFFEF787FB801B26
:104EB000B842F6D9C4E7916821F4F81165E7064BCA
:104EC00094F82C20C3F8E02169E700BF00004742B6
:104ED00000380240007000400010474238B50D46CF
:104EE0000446C8B190F82C3003F0FF021BB980F8DB
:104EF0002D20FDF7EFF9022384F82C30211D2068C6
:104F000000F00EFD62682068294600F03FFD012395
:104F100084F82C30002038BD0120FCE770B590F8F3
:104F20002C30022B05460E46D8B212D000F0FB04FE
:104F3000012C0FD1022385F82C30286800F05CFD8D
:104F40003368022B06BF052385F82C3085F82C40EA
:104F5000002070BD0120FCE738B590F82C30022B02
:104F60000446D8B20DD094F82C30012BDDB209D113
:104F70000223206884F82C3000F062FD84F82C5065
:104F8000002038BD0120FCE72DE9F3471F46894684
:104F900090460446FEF712FB0A9D3D442D1AFEF78B
:104FA0000DFB264B1E68C6F3CB366E438246019638
:104FB0002268936839EA03030CBF012300234345A9
:104FC00001D100202EE07B1CF3D0FEF7F7FAA0EB16
:104FD0000A00A84229D323685A6822F0E0025A60E6
:104FE0006268B2F5827F0AD1A268B2F5004F02D0A2
:104FF000B2F5806F03D11A6822F040021A60A26AEB
:10500000B2F5005F07D11A6822F400521A601A68DC
:1050100042F400521A60012384F85130002384F8CE
:105020005030032002B0BDE8F087019A019B002AAE
:1050300003F1FF33019308BF1546B9E77400002060
:10504000F0B585B00B4600920E46174602210122AC
:105050000446FFF799FF054628B1636D43F020032E
:105060006365032515E0124B1868124BB0FBF3F093
:105070004FF47A73584363680390B3F5827F0BD182
:10508000009733462A4680212046FFF77DFF0028FF
:10509000E3D1284605B0F0BD039B002BF9D0039B5C
:1050A000013B039323689B681B06F5D4F1E700BF1F
:1050B0007400002000366E0137B50B464168B1F52B
:1050C000827F044608D0009201210022FFF75CFF96
:1050D000D0B9002003B030BD8168B1F5004F02D0D7
:1050E000B1F5806F07D125682868B1F5806F20F091
:1050F0004000286004D00092802100222046E5E78D
:10510000009201210022F9E7636D43F020036365FB
:105110000320DFE710B50446002855D0436A002B72
:105120004ED14268B2F5827F00D0C3610023A362F2
:1051300094F8513003F0FF0223B984F85020204640
:10514000FDF792F82168A068A269022384F8513023
:105150000B6823F040030B60636800F4044003F421
:1051600082730343E06800F400600343206900F0A9
:1051700002000343606900F00100034302F4007081
:105180000343E06900F038000343206A00F0800028
:105190000343A06A00F4005003430B60636A120CDF
:1051A00003F0100302F004021A434A60CB6923F4AF
:1051B0000063CB6100200123606584F8513010BD8D
:1051C0000023C0E90433B1E70120F8E72DE9F743F4
:1051D00004461F460D469046FEF7F0F994F851300C
:1051E000012B8146D8B240F09F80002D74D0B8F1D9
:1051F000000F71D094F85030012B00F095800323FC
:1052000084F8513000236365C4E91033A4F8368074
:10521000A363A387E387A368266884F85000B3F5E7
:10522000004F2563A4F8348007D1336823F040038E
:105230003360336843F4804333603368E2685B066D
:105240005EBF336843F040033360B2F5006F6368BC
:1052500045D113B1B8F1010F07D135F8023BF36026
:105260002563E38E013B9BB2E386E38E9BB2D3B909
:105270004A4639462046FFF7E3FE002851D1A3688D
:1052800033B901932368DA6801929B680193019B0B
:10529000012384F85130606D0023C01A84F8503027
:1052A00018BF012018E022689368980705D5236B82
:1052B00033F8021BD1602363D3E7FEF77FF9A0EB3D
:1052C0000900B842D1D3791CCFD0012384F85130E2
:1052D000002384F85030032003B0BDE8F08313B1FD
:1052E000B8F1010F08D12B783373236B013323639B
:1052F000E38E013B9BB2E386E38E9BB2002BB7D0DB
:1053000023689A68920703D5226B12781A73ECE728
:10531000FEF754F9A0EB0900B842EDD37B1CEBD0AB
:10532000D3E720236365AAE70220D5E72DE9F743F9
:1053300004460D4691461E46DDF82880FEF73EF9EC
:1053400094F851306268012B0746D9B20AD0B2F501
:10535000827F40F0E580A368002B40F0E1800429C3
:1053600040F0DE80002D4BD0B9F1000F48D0002E68
:1053700046D094F85030012B00F0D280012384F8FD
:10538000503094F85130C4F83890042B1CBF0523DA
:1053900084F8513000236365C4E910332368E6873D
:1053A000E6861968A687490658BF1968256358BF5D
:1053B00041F04001A68658BF1960E168B1F5006F61
:1053C00055D10AB1012E07D135F8022BDA60E38EF0
:1053D0002563013B9BB2E3860125E38E9BB28BB92B
:1053E000E38F9BB273B93A4641462046FFF728FE49
:1053F000002800F0818020236365002384F850306A
:10540000012031E021688B689A070DD5E38E9BB2AD
:1054100053B145B1236B33F8022BCA602363E38E8B
:10542000013B9BB2E38600258A6812F001020CD092
:10543000E38F9BB24BB1A36BC96823F8021BA36334
:10544000E38F013B9BB2E3871546FEF7B7F8C01B1D
:105450004045C2D3B8F1FF3FBFD0012384F851309B
:10546000002384F85030032003B0BDE8F0830AB174
:10547000012E08D12A781A73236B01332363E38E3C
:10548000013B9BB2E38601252DE0226893689B07D0
:105490000ED5E38E9BB25BB14DB1236B1B781373BA
:1054A000236B01332363E38E013B9BB2E38600252C
:1054B0002268916811F001010DD0E38F9BB253B1C6
:1054C000A36BD2681A70A36B0133A363E38F013B14
:1054D0009BB2E3870D46FEF771F8C01B404502D32F
:1054E000B8F1FF3FB9D1E38E9BB2002BCDD1E38F52
:1054F0009BB2002BC9D176E7A36833B90193236827
:10550000DA6801929B680193019B012384F8513072
:10551000606D0023C01A84F8503018BF0120A3E743
:105520000220A1E72DE9F7431E4690F85130012BE8
:10553000044689461746DDB204D00225284603B04A
:10554000BDE8F0834368B3F5827F0BD183684BB924
:10555000042380F85130134600960A46FFF7E6FE12
:105560000546EBE7FEF72AF88046B9F1000FE5D0D3
:10557000002FE3D094F85030012BDED0A268C4F89D
:1055800038900123002584F85030B2F5004F4FF0D9
:10559000040384F85130C4E9105565652368E78732
:1055A000A7872563A586E58607D11A6822F0400201
:1055B0001A601A6822F480421A601A6855065EBFA3
:1055C0001A6842F040021A60E368F3B1E38F9BB2BD
:1055D000FBB123689A68D2073CD5DA68A36B23F83D
:1055E000022BA363E38F013B9BB2E387EEE72368C3
:1055F0009A68D0071ED5A26B1B7B1370A36B013377
:10560000A363E38F013B9BB2E387E38F9BB2002B45
:10561000EDD1424631462046FFF74EFD18BB01232F
:1056200084F85130656D0023ED1A84F8503018BFAE
:10563000012583E7FDF7C2FFA0EB0800B042E4D3E9
:10564000711CE2D0012384F85130002384F85030DB
:10565000032573E7FDF7B2FFA0EB0800B042B5D316
:10566000731CB3D0EEE720236365D8E770470000D2
:1056700090F83D30012B30D1022380F83D30036893
:10568000DA6842F00102DA60154A93421AD0B3F1A7
:10569000804F17D0A2F57C42934213D002F580626E
:1056A00093420FD002F5806293420BD002F578420C
:1056B000934207D002F57052934203D0A2F5943280
:1056C000934204D19A6802F00702062A03D01A68AE
:1056D00042F001021A60002070470120704700BFAD
:1056E000000001407047704770477047036870B50D
:1056F000DD681E69B10704460DD5AA070BD56FF00A
:1057000002021A61012202779B699B0769D0FFF7A9
:10571000EAFF00232377710710D56A070ED52368A7
:105720006FF004021A61022222779B6913F4407F12
:1057300020465CD0FFF7D7FF0023237733070FD530
:1057400028070DD523686FF008021A61042222771A
:10575000DB699907204650D0FFF7C5FF0023237768
:10576000F20610D5EB060ED523686FF010021A6111
:1057700008222277DB6913F4407F204643D0FFF7ED
:10578000B2FF00232377F00708D5E90706D5236881
:105790006FF001021A612046FCF7C4FA320608D500
:1057A0002B0606D523686FF080021A61204600F0B0
:1057B000B6F8700608D5690606D523686FF0400272
:1057C0001A612046FFF791FFB20622D5AB0620D51D
:1057D00023686FF0200220461A61BDE8704000F097
:1057E0009DB8FFF77FFF2046FFF77EFF91E7FFF7A9
:1057F00079FF2046FFF778FF9EE7FFF773FF20460B
:10580000FFF772FFAAE7FFF76DFF2046FFF76CFF77
:10581000B7E770BD294A0368904212D0B0F1804FBB
:105820000FD0A2F57C4290420BD002F580629042EC
:1058300007D002F58062904203D002F57842904290
:1058400008D14A6823F070031343CA6823F44073F5
:10585000134316E01A4A9042F7D002F58062904254
:10586000F3D002F580629042EFD0A2F598329042D8
:10587000EBD002F580629042E7D002F58062904260
:10588000E3D04A6923F08003134303608B68C3624B
:105890000B688362094B984203D003F580639842FA
:1058A00001D10B690363012343610369DB0742BF35
:1058B000036923F001030361704700BF000001404A
:1058C0000040014010B5044630B390F83D3003F07D
:1058D000FF021BB980F83C20FFF7C8FE02232068B6
:1058E00084F83D30211DFFF795FF012384F84630F1
:1058F000002084F83E3084F83F3084F8403084F84B
:10590000413084F8423084F8433084F8443084F8DD
:10591000453084F83D3010BD0120FCE770477047EA
:105920002DE9F041D1E90738D1E9012CD1E903761D
:10593000D1E90554D1F824E0096843EA080381B9A4
:1059400043EA0E03134343EA0C033B43016833432A
:105950002B4323436FF30E010B4303600020BDE88C
:10596000F081016843EA0E0321F4F8410B43036020
:1059700042EA0C0341683B4333432B4321F4FF428B
:10598000234322F07F0213434360E7E7CB6803F130
:10599000FF3C4B69F0B54C688F680E698D690968EA
:1059A000013B1B05013C013F013E013D24013F023B
:1059B00036042D06013943EA0C335AB90B4323430D
:1059C00082683B4333432B4302F0704213438360AE
:1059D0000020F0BD826822F4700222F4704213436A
:1059E000836044EA0703C2680B4333432B4302F04E
:1059F00070421343C360EBE770B504461546026975
:105A0000D1E900300343C8686FF3150243EA40232D
:105A100013438A68013A43EA42132361FDF7CEFD3E
:105A20000646A06910F0200003D06B1CF9D00DB918
:105A3000032070BDFDF7C2FD801BA842F1D9F7E736
:105A400043696FF34D0343EA41034361002070470C
:105A500008B54FF0E0231B6901F0F0FD012803D0E9
:105A6000BDE8084000F0DEBB08BD0000EFF3058391
:105A70002BB9064B186828B901221A6070476FF0DD
:105A8000050070474FF0FF30704700BFAC2D00207D
:105A900010B5EFF305845CB9084B1A68012A0AD1E6
:105AA000074AD47702221A6001F046FB204610BD57
:105AB0006FF00500FBE74FF0FF30F8E7AC2D00205A
:105AC00000ED00E0F0B587B0144600220B460592C9
:105AD000EFF30582FAB9F0B154B3A56925B1691E97
